{
	"adeFunke_flat.sol": {
		"Funke": {
			"abi": [
				{
					"inputs": [],
					"name": "ConstructData",
					"outputs": [
						{
							"internalType": "bytes",
							"name": "data",
							"type": "bytes"
						}
					],
					"stateMutability": "pure",
					"type": "function"
				},
				{
					"inputs": [
						{
							"internalType": "address",
							"name": "from",
							"type": "address"
						},
						{
							"internalType": "address",
							"name": "to",
							"type": "address"
						},
						{
							"internalType": "uint256",
							"name": "amount",
							"type": "uint256"
						}
					],
					"name": "TransferFrom",
					"outputs": [],
					"stateMutability": "nonpayable",
					"type": "function"
				},
				{
					"inputs": [
						{
							"internalType": "address",
							"name": "_addr",
							"type": "address"
						}
					],
					"name": "allowance",
					"outputs": [
						{
							"internalType": "uint256",
							"name": "",
							"type": "uint256"
						}
					],
					"stateMutability": "view",
					"type": "function"
				},
				{
					"inputs": [
						{
							"internalType": "address",
							"name": "_to",
							"type": "address"
						},
						{
							"internalType": "uint256",
							"name": "_amount",
							"type": "uint256"
						}
					],
					"name": "approve",
					"outputs": [],
					"stateMutability": "nonpayable",
					"type": "function"
				},
				{
					"inputs": [
						{
							"internalType": "address",
							"name": "_addr",
							"type": "address"
						}
					],
					"name": "balanceOf",
					"outputs": [
						{
							"internalType": "uint256",
							"name": "",
							"type": "uint256"
						}
					],
					"stateMutability": "view",
					"type": "function"
				},
				{
					"inputs": [],
					"name": "initialize",
					"outputs": [],
					"stateMutability": "nonpayable",
					"type": "function"
				},
				{
					"inputs": [],
					"name": "initialized",
					"outputs": [
						{
							"internalType": "bool",
							"name": "",
							"type": "bool"
						}
					],
					"stateMutability": "view",
					"type": "function"
				},
				{
					"inputs": [],
					"name": "owner",
					"outputs": [
						{
							"internalType": "address",
							"name": "",
							"type": "address"
						}
					],
					"stateMutability": "view",
					"type": "function"
				},
				{
					"inputs": [],
					"name": "proxiableUUID",
					"outputs": [
						{
							"internalType": "bytes32",
							"name": "",
							"type": "bytes32"
						}
					],
					"stateMutability": "pure",
					"type": "function"
				},
				{
					"inputs": [
						{
							"internalType": "address",
							"name": "_address",
							"type": "address"
						},
						{
							"internalType": "uint256",
							"name": "_amount",
							"type": "uint256"
						}
					],
					"name": "transfer",
					"outputs": [],
					"stateMutability": "nonpayable",
					"type": "function"
				},
				{
					"inputs": [
						{
							"internalType": "address",
							"name": "_newAddress",
							"type": "address"
						}
					],
					"name": "upgradeable",
					"outputs": [],
					"stateMutability": "nonpayable",
					"type": "function"
				}
			],
			"devdoc": {
				"kind": "dev",
				"methods": {},
				"version": 1
			},
			"evm": {
				"assembly": "    /* \"adeFunke_flat.sol\":768:2695  contract Funke is Proxiable {... */\n  mstore(0x40, 0x80)\n  callvalue\n  dup1\n  iszero\n  tag_1\n  jumpi\n  0x00\n  dup1\n  revert\ntag_1:\n  pop\n  dataSize(sub_0)\n  dup1\n  dataOffset(sub_0)\n  0x00\n  codecopy\n  0x00\n  return\nstop\n\nsub_0: assembly {\n        /* \"adeFunke_flat.sol\":768:2695  contract Funke is Proxiable {... */\n      mstore(0x40, 0x80)\n      callvalue\n      dup1\n      iszero\n      tag_1\n      jumpi\n      0x00\n      dup1\n      revert\n    tag_1:\n      pop\n      jumpi(tag_2, lt(calldatasize, 0x04))\n      shr(0xe0, calldataload(0x00))\n      dup1\n      0x62b583a2\n      gt\n      tag_14\n      jumpi\n      dup1\n      0x62b583a2\n      eq\n      tag_8\n      jumpi\n      dup1\n      0x70a08231\n      eq\n      tag_9\n      jumpi\n      dup1\n      0x8129fc1c\n      eq\n      tag_10\n      jumpi\n      dup1\n      0x8da5cb5b\n      eq\n      tag_11\n      jumpi\n      dup1\n      0xa9059cbb\n      eq\n      tag_12\n      jumpi\n      dup1\n      0xc0d84ce5\n      eq\n      tag_13\n      jumpi\n      jump(tag_2)\n    tag_14:\n      dup1\n      0x095ea7b3\n      eq\n      tag_3\n      jumpi\n      dup1\n      0x158ef93e\n      eq\n      tag_4\n      jumpi\n      dup1\n      0x3e5beab9\n      eq\n      tag_5\n      jumpi\n      dup1\n      0x52d1902d\n      eq\n      tag_6\n      jumpi\n      dup1\n      0x5a95ff19\n      eq\n      tag_7\n      jumpi\n    tag_2:\n      0x00\n      dup1\n      revert\n        /* \"adeFunke_flat.sol\":1965:2131  function approve(address _to, uint256 _amount) public {... */\n    tag_3:\n      tag_15\n      0x04\n      dup1\n      calldatasize\n      sub\n      dup2\n      add\n      swap1\n      tag_16\n      swap2\n      swap1\n      tag_17\n      jump\t// in\n    tag_16:\n      tag_18\n      jump\t// in\n    tag_15:\n      stop\n        /* \"adeFunke_flat.sol\":864:887  bool public initialized */\n    tag_4:\n      tag_19\n      tag_20\n      jump\t// in\n    tag_19:\n      mload(0x40)\n      tag_21\n      swap2\n      swap1\n      tag_22\n      jump\t// in\n    tag_21:\n      mload(0x40)\n      dup1\n      swap2\n      sub\n      swap1\n      return\n        /* \"adeFunke_flat.sol\":2406:2519  function allowance(address _addr) public view returns(uint256){... */\n    tag_5:\n      tag_23\n      0x04\n      dup1\n      calldatasize\n      sub\n      dup2\n      add\n      swap1\n      tag_24\n      swap2\n      swap1\n      tag_25\n      jump\t// in\n    tag_24:\n      tag_26\n      jump\t// in\n    tag_23:\n      mload(0x40)\n      tag_27\n      swap2\n      swap1\n      tag_28\n      jump\t// in\n    tag_27:\n      mload(0x40)\n      dup1\n      swap2\n      sub\n      swap1\n      return\n        /* \"adeFunke_flat.sol\":590:735  function proxiableUUID() public pure returns (bytes32) {... */\n    tag_6:\n      tag_29\n      tag_30\n      jump\t// in\n    tag_29:\n      mload(0x40)\n      tag_31\n      swap2\n      swap1\n      tag_32\n      jump\t// in\n    tag_31:\n      mload(0x40)\n      dup1\n      swap2\n      sub\n      swap1\n      return\n        /* \"adeFunke_flat.sol\":1467:1587  function ConstructData() public pure returns(bytes memory data) {... */\n    tag_7:\n      tag_33\n      tag_34\n      jump\t// in\n    tag_33:\n      mload(0x40)\n      tag_35\n      swap2\n      swap1\n      tag_36\n      jump\t// in\n    tag_35:\n      mload(0x40)\n      dup1\n      swap2\n      sub\n      swap1\n      return\n        /* \"adeFunke_flat.sol\":2521:2689  function upgradeable(address _newAddress) public {... */\n    tag_8:\n      tag_37\n      0x04\n      dup1\n      calldatasize\n      sub\n      dup2\n      add\n      swap1\n      tag_38\n      swap2\n      swap1\n      tag_25\n      jump\t// in\n    tag_38:\n      tag_39\n      jump\t// in\n    tag_37:\n      stop\n        /* \"adeFunke_flat.sol\":1669:1762  function balanceOf(address _addr) public view returns(uint256) {... */\n    tag_9:\n      tag_40\n      0x04\n      dup1\n      calldatasize\n      sub\n      dup2\n      add\n      swap1\n      tag_41\n      swap2\n      swap1\n      tag_25\n      jump\t// in\n    tag_41:\n      tag_42\n      jump\t// in\n    tag_40:\n      mload(0x40)\n      tag_43\n      swap2\n      swap1\n      tag_28\n      jump\t// in\n    tag_43:\n      mload(0x40)\n      dup1\n      swap2\n      sub\n      swap1\n      return\n        /* \"adeFunke_flat.sol\":1156:1465  function initialize() public {... */\n    tag_10:\n      tag_44\n      tag_45\n      jump\t// in\n    tag_44:\n      stop\n        /* \"adeFunke_flat.sol\":893:913  address public owner */\n    tag_11:\n      tag_46\n      tag_47\n      jump\t// in\n    tag_46:\n      mload(0x40)\n      tag_48\n      swap2\n      swap1\n      tag_49\n      jump\t// in\n    tag_48:\n      mload(0x40)\n      dup1\n      swap2\n      sub\n      swap1\n      return\n        /* \"adeFunke_flat.sol\":1764:1963  function transfer(address _address, uint256 _amount) public {... */\n    tag_12:\n      tag_50\n      0x04\n      dup1\n      calldatasize\n      sub\n      dup2\n      add\n      swap1\n      tag_51\n      swap2\n      swap1\n      tag_17\n      jump\t// in\n    tag_51:\n      tag_52\n      jump\t// in\n    tag_50:\n      stop\n        /* \"adeFunke_flat.sol\":2133:2405  function TransferFrom(address from, address to, uint256 amount) public {... */\n    tag_13:\n      tag_53\n      0x04\n      dup1\n      calldatasize\n      sub\n      dup2\n      add\n      swap1\n      tag_54\n      swap2\n      swap1\n      tag_55\n      jump\t// in\n    tag_54:\n      tag_56\n      jump\t// in\n    tag_53:\n      stop\n        /* \"adeFunke_flat.sol\":1965:2131  function approve(address _to, uint256 _amount) public {... */\n    tag_18:\n        /* \"adeFunke_flat.sol\":2058:2065  _amount */\n      dup1\n        /* \"adeFunke_flat.sol\":2033:2054  balanceOf(msg.sender) */\n      tag_58\n        /* \"adeFunke_flat.sol\":2043:2053  msg.sender */\n      caller\n        /* \"adeFunke_flat.sol\":2033:2042  balanceOf */\n      tag_42\n        /* \"adeFunke_flat.sol\":2033:2054  balanceOf(msg.sender) */\n      jump\t// in\n    tag_58:\n        /* \"adeFunke_flat.sol\":2033:2065  balanceOf(msg.sender) >= _amount */\n      lt\n      iszero\n        /* \"adeFunke_flat.sol\":2025:2088  require(balanceOf(msg.sender) >= _amount, \"Unable to approve\" ) */\n      tag_59\n      jumpi\n      mload(0x40)\n      0x08c379a000000000000000000000000000000000000000000000000000000000\n      dup2\n      mstore\n      0x04\n      add\n      tag_60\n      swap1\n      tag_61\n      jump\t// in\n    tag_60:\n      mload(0x40)\n      dup1\n      swap2\n      sub\n      swap1\n      revert\n    tag_59:\n        /* \"adeFunke_flat.sol\":2121:2128  _amount */\n      dup1\n        /* \"adeFunke_flat.sol\":2094:2101  Approve */\n      0x05\n        /* \"adeFunke_flat.sol\":2094:2113  Approve[msg.sender] */\n      0x00\n        /* \"adeFunke_flat.sol\":2102:2112  msg.sender */\n      caller\n        /* \"adeFunke_flat.sol\":2094:2113  Approve[msg.sender] */\n      0xffffffffffffffffffffffffffffffffffffffff\n      and\n      0xffffffffffffffffffffffffffffffffffffffff\n      and\n      dup2\n      mstore\n      0x20\n      add\n      swap1\n      dup2\n      mstore\n      0x20\n      add\n      0x00\n      keccak256\n        /* \"adeFunke_flat.sol\":2094:2118  Approve[msg.sender][_to] */\n      0x00\n        /* \"adeFunke_flat.sol\":2114:2117  _to */\n      dup5\n        /* \"adeFunke_flat.sol\":2094:2118  Approve[msg.sender][_to] */\n      0xffffffffffffffffffffffffffffffffffffffff\n      and\n      0xffffffffffffffffffffffffffffffffffffffff\n      and\n      dup2\n      mstore\n      0x20\n      add\n      swap1\n      dup2\n      mstore\n      0x20\n      add\n      0x00\n      keccak256\n        /* \"adeFunke_flat.sol\":2094:2128  Approve[msg.sender][_to] = _amount */\n      dup2\n      swap1\n      sstore\n      pop\n        /* \"adeFunke_flat.sol\":1965:2131  function approve(address _to, uint256 _amount) public {... */\n      pop\n      pop\n      jump\t// out\n        /* \"adeFunke_flat.sol\":864:887  bool public initialized */\n    tag_20:\n      0x03\n      0x00\n      swap1\n      sload\n      swap1\n      0x0100\n      exp\n      swap1\n      div\n      0xff\n      and\n      dup2\n      jump\t// out\n        /* \"adeFunke_flat.sol\":2406:2519  function allowance(address _addr) public view returns(uint256){... */\n    tag_26:\n        /* \"adeFunke_flat.sol\":2460:2467  uint256 */\n      0x00\n        /* \"adeFunke_flat.sol\":2485:2492  Approve */\n      0x05\n        /* \"adeFunke_flat.sol\":2485:2504  Approve[msg.sender] */\n      0x00\n        /* \"adeFunke_flat.sol\":2493:2503  msg.sender */\n      caller\n        /* \"adeFunke_flat.sol\":2485:2504  Approve[msg.sender] */\n      0xffffffffffffffffffffffffffffffffffffffff\n      and\n      0xffffffffffffffffffffffffffffffffffffffff\n      and\n      dup2\n      mstore\n      0x20\n      add\n      swap1\n      dup2\n      mstore\n      0x20\n      add\n      0x00\n      keccak256\n        /* \"adeFunke_flat.sol\":2485:2511  Approve[msg.sender][_addr] */\n      0x00\n        /* \"adeFunke_flat.sol\":2505:2510  _addr */\n      dup4\n        /* \"adeFunke_flat.sol\":2485:2511  Approve[msg.sender][_addr] */\n      0xffffffffffffffffffffffffffffffffffffffff\n      and\n      0xffffffffffffffffffffffffffffffffffffffff\n      and\n      dup2\n      mstore\n      0x20\n      add\n      swap1\n      dup2\n      mstore\n      0x20\n      add\n      0x00\n      keccak256\n      sload\n        /* \"adeFunke_flat.sol\":2478:2512  return(Approve[msg.sender][_addr]) */\n      swap1\n      pop\n        /* \"adeFunke_flat.sol\":2406:2519  function allowance(address _addr) public view returns(uint256){... */\n      swap2\n      swap1\n      pop\n      jump\t// out\n        /* \"adeFunke_flat.sol\":590:735  function proxiableUUID() public pure returns (bytes32) {... */\n    tag_30:\n        /* \"adeFunke_flat.sol\":636:643  bytes32 */\n      0x00\n        /* \"adeFunke_flat.sol\":662:728  0xc5f16f0fcc639fa48a6947836d9850f504798523bf8c9a3a87d5876cf622bcf7 */\n      0xc5f16f0fcc639fa48a6947836d9850f504798523bf8c9a3a87d5876cf622bcf7\n        /* \"adeFunke_flat.sol\":655:728  return 0xc5f16f0fcc639fa48a6947836d9850f504798523bf8c9a3a87d5876cf622bcf7 */\n      0x00\n      shl\n      swap1\n      pop\n        /* \"adeFunke_flat.sol\":590:735  function proxiableUUID() public pure returns (bytes32) {... */\n      swap1\n      jump\t// out\n        /* \"adeFunke_flat.sol\":1467:1587  function ConstructData() public pure returns(bytes memory data) {... */\n    tag_34:\n        /* \"adeFunke_flat.sol\":1512:1529  bytes memory data */\n      0x60\n        /* \"adeFunke_flat.sol\":1544:1583  abi.encodeWithSignature(\"initialize()\") */\n      add(0x24, mload(0x40))\n      mload(0x40)\n      0x20\n      dup2\n      dup4\n      sub\n      sub\n      dup2\n      mstore\n      swap1\n      0x40\n      mstore\n      and(not(0xffffffffffffffffffffffffffffffffffffffffffffffffffffffff), 0x8129fc1c00000000000000000000000000000000000000000000000000000000)\n      0x20\n      dup3\n      add\n      dup1\n      mload\n      0xffffffffffffffffffffffffffffffffffffffffffffffffffffffff\n      dup4\n      dup2\n      dup4\n      and\n      or\n      dup4\n      mstore\n      pop\n      pop\n      pop\n      pop\n        /* \"adeFunke_flat.sol\":1537:1583  data = abi.encodeWithSignature(\"initialize()\") */\n      swap1\n      pop\n        /* \"adeFunke_flat.sol\":1467:1587  function ConstructData() public pure returns(bytes memory data) {... */\n      swap1\n      jump\t// out\n        /* \"adeFunke_flat.sol\":2521:2689  function upgradeable(address _newAddress) public {... */\n    tag_39:\n        /* \"adeFunke_flat.sol\":2602:2607  owner */\n      0x03\n      0x01\n      swap1\n      sload\n      swap1\n      0x0100\n      exp\n      swap1\n      div\n      0xffffffffffffffffffffffffffffffffffffffff\n      and\n        /* \"adeFunke_flat.sol\":2588:2607  msg.sender == owner */\n      0xffffffffffffffffffffffffffffffffffffffff\n      and\n        /* \"adeFunke_flat.sol\":2588:2598  msg.sender */\n      caller\n        /* \"adeFunke_flat.sol\":2588:2607  msg.sender == owner */\n      0xffffffffffffffffffffffffffffffffffffffff\n      and\n      eq\n        /* \"adeFunke_flat.sol\":2580:2642  require(msg.sender == owner, \"You are not allowed to upgrade\") */\n      tag_66\n      jumpi\n      mload(0x40)\n      0x08c379a000000000000000000000000000000000000000000000000000000000\n      dup2\n      mstore\n      0x04\n      add\n      tag_67\n      swap1\n      tag_68\n      jump\t// in\n    tag_67:\n      mload(0x40)\n      dup1\n      swap2\n      sub\n      swap1\n      revert\n    tag_66:\n        /* \"adeFunke_flat.sol\":2652:2682  updateCodeAddress(_newAddress) */\n      tag_69\n        /* \"adeFunke_flat.sol\":2670:2681  _newAddress */\n      dup2\n        /* \"adeFunke_flat.sol\":2652:2669  updateCodeAddress */\n      tag_70\n        /* \"adeFunke_flat.sol\":2652:2682  updateCodeAddress(_newAddress) */\n      jump\t// in\n    tag_69:\n        /* \"adeFunke_flat.sol\":2521:2689  function upgradeable(address _newAddress) public {... */\n      pop\n      jump\t// out\n        /* \"adeFunke_flat.sol\":1669:1762  function balanceOf(address _addr) public view returns(uint256) {... */\n    tag_42:\n        /* \"adeFunke_flat.sol\":1723:1730  uint256 */\n      0x00\n        /* \"adeFunke_flat.sol\":1745:1752  balance */\n      0x04\n        /* \"adeFunke_flat.sol\":1745:1759  balance[_addr] */\n      0x00\n        /* \"adeFunke_flat.sol\":1753:1758  _addr */\n      dup4\n        /* \"adeFunke_flat.sol\":1745:1759  balance[_addr] */\n      0xffffffffffffffffffffffffffffffffffffffff\n      and\n      0xffffffffffffffffffffffffffffffffffffffff\n      and\n      dup2\n      mstore\n      0x20\n      add\n      swap1\n      dup2\n      mstore\n      0x20\n      add\n      0x00\n      keccak256\n      sload\n        /* \"adeFunke_flat.sol\":1738:1759  return balance[_addr] */\n      swap1\n      pop\n        /* \"adeFunke_flat.sol\":1669:1762  function balanceOf(address _addr) public view returns(uint256) {... */\n      swap2\n      swap1\n      pop\n      jump\t// out\n        /* \"adeFunke_flat.sol\":1156:1465  function initialize() public {... */\n    tag_45:\n        /* \"adeFunke_flat.sol\":1204:1215  initialized */\n      0x03\n      0x00\n      swap1\n      sload\n      swap1\n      0x0100\n      exp\n      swap1\n      div\n      0xff\n      and\n        /* \"adeFunke_flat.sol\":1203:1215  !initialized */\n      iszero\n        /* \"adeFunke_flat.sol\":1195:1248  require(!initialized, \"Contract already Initialized\") */\n      tag_73\n      jumpi\n      mload(0x40)\n      0x08c379a000000000000000000000000000000000000000000000000000000000\n      dup2\n      mstore\n      0x04\n      add\n      tag_74\n      swap1\n      tag_75\n      jump\t// in\n    tag_74:\n      mload(0x40)\n      dup1\n      swap2\n      sub\n      swap1\n      revert\n    tag_73:\n        /* \"adeFunke_flat.sol\":1272:1276  true */\n      0x01\n        /* \"adeFunke_flat.sol\":1258:1269  initialized */\n      0x03\n      0x00\n        /* \"adeFunke_flat.sol\":1258:1276  initialized = true */\n      0x0100\n      exp\n      dup2\n      sload\n      dup2\n      0xff\n      mul\n      not\n      and\n      swap1\n      dup4\n      iszero\n      iszero\n      mul\n      or\n      swap1\n      sstore\n      pop\n        /* \"adeFunke_flat.sol\":1300:1317  500000 * (10**18) */\n      0x69e10de76676d0800000\n        /* \"adeFunke_flat.sol\":1286:1297  TotalSupply */\n      0x00\n        /* \"adeFunke_flat.sol\":1286:1317  TotalSupply = 500000 * (10**18) */\n      dup2\n      swap1\n      sstore\n      pop\n        /* \"adeFunke_flat.sol\":1327:1346  Name = \"Morenikeji\" */\n      mload(0x40)\n      dup1\n      0x40\n      add\n      0x40\n      mstore\n      dup1\n      0x0a\n      dup2\n      mstore\n      0x20\n      add\n      0x4d6f72656e696b656a6900000000000000000000000000000000000000000000\n      dup2\n      mstore\n      pop\n        /* \"adeFunke_flat.sol\":1327:1331  Name */\n      0x01\n        /* \"adeFunke_flat.sol\":1327:1346  Name = \"Morenikeji\" */\n      swap1\n      dup2\n      tag_76\n      swap2\n      swap1\n      tag_77\n      jump\t// in\n    tag_76:\n      pop\n        /* \"adeFunke_flat.sol\":1356:1370  Symbol = \"MKJ\" */\n      mload(0x40)\n      dup1\n      0x40\n      add\n      0x40\n      mstore\n      dup1\n      0x03\n      dup2\n      mstore\n      0x20\n      add\n      0x4d4b4a0000000000000000000000000000000000000000000000000000000000\n      dup2\n      mstore\n      pop\n        /* \"adeFunke_flat.sol\":1356:1362  Symbol */\n      0x02\n        /* \"adeFunke_flat.sol\":1356:1370  Symbol = \"MKJ\" */\n      swap1\n      dup2\n      tag_78\n      swap2\n      swap1\n      tag_77\n      jump\t// in\n    tag_78:\n      pop\n        /* \"adeFunke_flat.sol\":1380:1428  mint(0xAA5AC6134633183C81436499fb38748D128e039b) */\n      tag_79\n        /* \"adeFunke_flat.sol\":1385:1427  0xAA5AC6134633183C81436499fb38748D128e039b */\n      0xaa5ac6134633183c81436499fb38748d128e039b\n        /* \"adeFunke_flat.sol\":1380:1384  mint */\n      tag_80\n        /* \"adeFunke_flat.sol\":1380:1428  mint(0xAA5AC6134633183C81436499fb38748D128e039b) */\n      jump\t// in\n    tag_79:\n        /* \"adeFunke_flat.sol\":1446:1456  msg.sender */\n      caller\n        /* \"adeFunke_flat.sol\":1438:1443  owner */\n      0x03\n      0x01\n        /* \"adeFunke_flat.sol\":1438:1456  owner = msg.sender */\n      0x0100\n      exp\n      dup2\n      sload\n      dup2\n      0xffffffffffffffffffffffffffffffffffffffff\n      mul\n      not\n      and\n      swap1\n      dup4\n      0xffffffffffffffffffffffffffffffffffffffff\n      and\n      mul\n      or\n      swap1\n      sstore\n      pop\n        /* \"adeFunke_flat.sol\":1156:1465  function initialize() public {... */\n      jump\t// out\n        /* \"adeFunke_flat.sol\":893:913  address public owner */\n    tag_47:\n      0x03\n      0x01\n      swap1\n      sload\n      swap1\n      0x0100\n      exp\n      swap1\n      div\n      0xffffffffffffffffffffffffffffffffffffffff\n      and\n      dup2\n      jump\t// out\n        /* \"adeFunke_flat.sol\":1764:1963  function transfer(address _address, uint256 _amount) public {... */\n    tag_52:\n        /* \"adeFunke_flat.sol\":1861:1868  _amount */\n      dup1\n        /* \"adeFunke_flat.sol\":1838:1845  balance */\n      0x04\n        /* \"adeFunke_flat.sol\":1838:1857  balance[msg.sender] */\n      0x00\n        /* \"adeFunke_flat.sol\":1846:1856  msg.sender */\n      caller\n        /* \"adeFunke_flat.sol\":1838:1857  balance[msg.sender] */\n      0xffffffffffffffffffffffffffffffffffffffff\n      and\n      0xffffffffffffffffffffffffffffffffffffffff\n      and\n      dup2\n      mstore\n      0x20\n      add\n      swap1\n      dup2\n      mstore\n      0x20\n      add\n      0x00\n      keccak256\n      sload\n        /* \"adeFunke_flat.sol\":1838:1868  balance[msg.sender] >= _amount */\n      lt\n      iszero\n        /* \"adeFunke_flat.sol\":1830:1890  require(balance[msg.sender] >= _amount, \"Insufficient Fund\") */\n      tag_82\n      jumpi\n      mload(0x40)\n      0x08c379a000000000000000000000000000000000000000000000000000000000\n      dup2\n      mstore\n      0x04\n      add\n      tag_83\n      swap1\n      tag_84\n      jump\t// in\n    tag_83:\n      mload(0x40)\n      dup1\n      swap2\n      sub\n      swap1\n      revert\n    tag_82:\n        /* \"adeFunke_flat.sol\":1919:1926  _amount */\n      dup1\n        /* \"adeFunke_flat.sol\":1896:1903  balance */\n      0x04\n        /* \"adeFunke_flat.sol\":1896:1915  balance[msg.sender] */\n      0x00\n        /* \"adeFunke_flat.sol\":1904:1914  msg.sender */\n      caller\n        /* \"adeFunke_flat.sol\":1896:1915  balance[msg.sender] */\n      0xffffffffffffffffffffffffffffffffffffffff\n      and\n      0xffffffffffffffffffffffffffffffffffffffff\n      and\n      dup2\n      mstore\n      0x20\n      add\n      swap1\n      dup2\n      mstore\n      0x20\n      add\n      0x00\n      keccak256\n      0x00\n        /* \"adeFunke_flat.sol\":1896:1926  balance[msg.sender] -= _amount */\n      dup3\n      dup3\n      sload\n      tag_85\n      swap2\n      swap1\n      tag_86\n      jump\t// in\n    tag_85:\n      swap3\n      pop\n      pop\n      dup2\n      swap1\n      sstore\n      pop\n        /* \"adeFunke_flat.sol\":1953:1960  _amount */\n      dup1\n        /* \"adeFunke_flat.sol\":1932:1939  balance */\n      0x04\n        /* \"adeFunke_flat.sol\":1932:1949  balance[_address] */\n      0x00\n        /* \"adeFunke_flat.sol\":1940:1948  _address */\n      dup5\n        /* \"adeFunke_flat.sol\":1932:1949  balance[_address] */\n      0xffffffffffffffffffffffffffffffffffffffff\n      and\n      0xffffffffffffffffffffffffffffffffffffffff\n      and\n      dup2\n      mstore\n      0x20\n      add\n      swap1\n      dup2\n      mstore\n      0x20\n      add\n      0x00\n      keccak256\n      0x00\n        /* \"adeFunke_flat.sol\":1932:1960  balance[_address] += _amount */\n      dup3\n      dup3\n      sload\n      tag_87\n      swap2\n      swap1\n      tag_88\n      jump\t// in\n    tag_87:\n      swap3\n      pop\n      pop\n      dup2\n      swap1\n      sstore\n      pop\n        /* \"adeFunke_flat.sol\":1764:1963  function transfer(address _address, uint256 _amount) public {... */\n      pop\n      pop\n      jump\t// out\n        /* \"adeFunke_flat.sol\":2133:2405  function TransferFrom(address from, address to, uint256 amount) public {... */\n    tag_56:\n        /* \"adeFunke_flat.sol\":2210:2232  uint256 Updatedbalance */\n      0x00\n        /* \"adeFunke_flat.sol\":2235:2242  Approve */\n      0x05\n        /* \"adeFunke_flat.sol\":2235:2248  Approve[from] */\n      0x00\n        /* \"adeFunke_flat.sol\":2243:2247  from */\n      dup6\n        /* \"adeFunke_flat.sol\":2235:2248  Approve[from] */\n      0xffffffffffffffffffffffffffffffffffffffff\n      and\n      0xffffffffffffffffffffffffffffffffffffffff\n      and\n      dup2\n      mstore\n      0x20\n      add\n      swap1\n      dup2\n      mstore\n      0x20\n      add\n      0x00\n      keccak256\n        /* \"adeFunke_flat.sol\":2235:2252  Approve[from][to] */\n      0x00\n        /* \"adeFunke_flat.sol\":2249:2251  to */\n      dup5\n        /* \"adeFunke_flat.sol\":2235:2252  Approve[from][to] */\n      0xffffffffffffffffffffffffffffffffffffffff\n      and\n      0xffffffffffffffffffffffffffffffffffffffff\n      and\n      dup2\n      mstore\n      0x20\n      add\n      swap1\n      dup2\n      mstore\n      0x20\n      add\n      0x00\n      keccak256\n      sload\n        /* \"adeFunke_flat.sol\":2210:2252  uint256 Updatedbalance = Approve[from][to] */\n      swap1\n      pop\n        /* \"adeFunke_flat.sol\":2284:2290  amount */\n      dup2\n        /* \"adeFunke_flat.sol\":2266:2280  Updatedbalance */\n      dup2\n        /* \"adeFunke_flat.sol\":2266:2290  Updatedbalance >= amount */\n      lt\n      iszero\n        /* \"adeFunke_flat.sol\":2258:2312  require(Updatedbalance >= amount, \"Amount unapproved\") */\n      tag_90\n      jumpi\n      mload(0x40)\n      0x08c379a000000000000000000000000000000000000000000000000000000000\n      dup2\n      mstore\n      0x04\n      add\n      tag_91\n      swap1\n      tag_92\n      jump\t// in\n    tag_91:\n      mload(0x40)\n      dup1\n      swap2\n      sub\n      swap1\n      revert\n    tag_90:\n        /* \"adeFunke_flat.sol\":2339:2345  amount */\n      dup2\n        /* \"adeFunke_flat.sol\":2318:2325  Approve */\n      0x05\n        /* \"adeFunke_flat.sol\":2318:2331  Approve[from] */\n      0x00\n        /* \"adeFunke_flat.sol\":2326:2330  from */\n      dup7\n        /* \"adeFunke_flat.sol\":2318:2331  Approve[from] */\n      0xffffffffffffffffffffffffffffffffffffffff\n      and\n      0xffffffffffffffffffffffffffffffffffffffff\n      and\n      dup2\n      mstore\n      0x20\n      add\n      swap1\n      dup2\n      mstore\n      0x20\n      add\n      0x00\n      keccak256\n        /* \"adeFunke_flat.sol\":2318:2335  Approve[from][to] */\n      0x00\n        /* \"adeFunke_flat.sol\":2332:2334  to */\n      dup6\n        /* \"adeFunke_flat.sol\":2318:2335  Approve[from][to] */\n      0xffffffffffffffffffffffffffffffffffffffff\n      and\n      0xffffffffffffffffffffffffffffffffffffffff\n      and\n      dup2\n      mstore\n      0x20\n      add\n      swap1\n      dup2\n      mstore\n      0x20\n      add\n      0x00\n      keccak256\n      0x00\n        /* \"adeFunke_flat.sol\":2318:2345  Approve[from][to] -= amount */\n      dup3\n      dup3\n      sload\n      tag_93\n      swap2\n      swap1\n      tag_86\n      jump\t// in\n    tag_93:\n      swap3\n      pop\n      pop\n      dup2\n      swap1\n      sstore\n      pop\n        /* \"adeFunke_flat.sol\":2368:2374  amount */\n      dup2\n        /* \"adeFunke_flat.sol\":2351:2358  balance */\n      0x04\n        /* \"adeFunke_flat.sol\":2351:2364  balance[from] */\n      0x00\n        /* \"adeFunke_flat.sol\":2359:2363  from */\n      dup7\n        /* \"adeFunke_flat.sol\":2351:2364  balance[from] */\n      0xffffffffffffffffffffffffffffffffffffffff\n      and\n      0xffffffffffffffffffffffffffffffffffffffff\n      and\n      dup2\n      mstore\n      0x20\n      add\n      swap1\n      dup2\n      mstore\n      0x20\n      add\n      0x00\n      keccak256\n      0x00\n        /* \"adeFunke_flat.sol\":2351:2374  balance[from] -= amount */\n      dup3\n      dup3\n      sload\n      tag_94\n      swap2\n      swap1\n      tag_86\n      jump\t// in\n    tag_94:\n      swap3\n      pop\n      pop\n      dup2\n      swap1\n      sstore\n      pop\n        /* \"adeFunke_flat.sol\":2395:2401  amount */\n      dup2\n        /* \"adeFunke_flat.sol\":2380:2387  balance */\n      0x04\n        /* \"adeFunke_flat.sol\":2380:2391  balance[to] */\n      0x00\n        /* \"adeFunke_flat.sol\":2388:2390  to */\n      dup6\n        /* \"adeFunke_flat.sol\":2380:2391  balance[to] */\n      0xffffffffffffffffffffffffffffffffffffffff\n      and\n      0xffffffffffffffffffffffffffffffffffffffff\n      and\n      dup2\n      mstore\n      0x20\n      add\n      swap1\n      dup2\n      mstore\n      0x20\n      add\n      0x00\n      keccak256\n      0x00\n        /* \"adeFunke_flat.sol\":2380:2401  balance[to] += amount */\n      dup3\n      dup3\n      sload\n      tag_95\n      swap2\n      swap1\n      tag_88\n      jump\t// in\n    tag_95:\n      swap3\n      pop\n      pop\n      dup2\n      swap1\n      sstore\n      pop\n        /* \"adeFunke_flat.sol\":2204:2405  {... */\n      pop\n        /* \"adeFunke_flat.sol\":2133:2405  function TransferFrom(address from, address to, uint256 amount) public {... */\n      pop\n      pop\n      pop\n      jump\t// out\n        /* \"adeFunke_flat.sol\":184:585  function updateCodeAddress(address newAddress) internal {... */\n    tag_70:\n        /* \"adeFunke_flat.sol\":360:370  newAddress */\n      dup1\n        /* \"adeFunke_flat.sol\":350:385  Proxiable(newAddress).proxiableUUID */\n      0xffffffffffffffffffffffffffffffffffffffff\n      and\n      0x52d1902d\n        /* \"adeFunke_flat.sol\":350:387  Proxiable(newAddress).proxiableUUID() */\n      mload(0x40)\n      dup2\n      0xffffffff\n      and\n      0xe0\n      shl\n      dup2\n      mstore\n      0x04\n      add\n      0x20\n      mload(0x40)\n      dup1\n      dup4\n      sub\n      dup2\n      dup7\n      gas\n      staticcall\n      iszero\n      dup1\n      iszero\n      tag_98\n      jumpi\n      returndatasize\n      0x00\n      dup1\n      returndatacopy\n      revert(0x00, returndatasize)\n    tag_98:\n      pop\n      pop\n      pop\n      pop\n      mload(0x40)\n      returndatasize\n      not(0x1f)\n      0x1f\n      dup3\n      add\n      and\n      dup3\n      add\n      dup1\n      0x40\n      mstore\n      pop\n      dup2\n      add\n      swap1\n      tag_99\n      swap2\n      swap1\n      tag_100\n      jump\t// in\n    tag_99:\n        /* \"adeFunke_flat.sol\":279:345  0xc5f16f0fcc639fa48a6947836d9850f504798523bf8c9a3a87d5876cf622bcf7 */\n      0xc5f16f0fcc639fa48a6947836d9850f504798523bf8c9a3a87d5876cf622bcf7\n        /* \"adeFunke_flat.sol\":271:346  bytes32(0xc5f16f0fcc639fa48a6947836d9850f504798523bf8c9a3a87d5876cf622bcf7) */\n      0x00\n      shl\n        /* \"adeFunke_flat.sol\":271:387  bytes32(0xc5f16f0fcc639fa48a6947836d9850f504798523bf8c9a3a87d5876cf622bcf7) == Proxiable(newAddress).proxiableUUID() */\n      eq\n        /* \"adeFunke_flat.sol\":250:427  require(... */\n      tag_101\n      jumpi\n      mload(0x40)\n      0x08c379a000000000000000000000000000000000000000000000000000000000\n      dup2\n      mstore\n      0x04\n      add\n      tag_102\n      swap1\n      tag_103\n      jump\t// in\n    tag_102:\n      mload(0x40)\n      dup1\n      swap2\n      sub\n      swap1\n      revert\n    tag_101:\n        /* \"adeFunke_flat.sol\":558:568  newAddress */\n      dup1\n        /* \"adeFunke_flat.sol\":490:556  0xc5f16f0fcc639fa48a6947836d9850f504798523bf8c9a3a87d5876cf622bcf7 */\n      0xc5f16f0fcc639fa48a6947836d9850f504798523bf8c9a3a87d5876cf622bcf7\n        /* \"adeFunke_flat.sol\":483:569  sstore(0xc5f16f0fcc639fa48a6947836d9850f504798523bf8c9a3a87d5876cf622bcf7, newAddress) */\n      sstore\n        /* \"adeFunke_flat.sol\":184:585  function updateCodeAddress(address newAddress) internal {... */\n      pop\n      jump\t// out\n        /* \"adeFunke_flat.sol\":1589:1667  function mint(address _admin) internal {... */\n    tag_80:\n        /* \"adeFunke_flat.sol\":1653:1664  TotalSupply */\n      sload(0x00)\n        /* \"adeFunke_flat.sol\":1634:1641  balance */\n      0x04\n        /* \"adeFunke_flat.sol\":1634:1649  balance[_admin] */\n      0x00\n        /* \"adeFunke_flat.sol\":1642:1648  _admin */\n      dup4\n        /* \"adeFunke_flat.sol\":1634:1649  balance[_admin] */\n      0xffffffffffffffffffffffffffffffffffffffff\n      and\n      0xffffffffffffffffffffffffffffffffffffffff\n      and\n      dup2\n      mstore\n      0x20\n      add\n      swap1\n      dup2\n      mstore\n      0x20\n      add\n      0x00\n      keccak256\n      0x00\n        /* \"adeFunke_flat.sol\":1634:1664  balance[_admin] += TotalSupply */\n      dup3\n      dup3\n      sload\n      tag_105\n      swap2\n      swap1\n      tag_88\n      jump\t// in\n    tag_105:\n      swap3\n      pop\n      pop\n      dup2\n      swap1\n      sstore\n      pop\n        /* \"adeFunke_flat.sol\":1589:1667  function mint(address _admin) internal {... */\n      pop\n      jump\t// out\n        /* \"#utility.yul\":88:205   */\n    tag_107:\n        /* \"#utility.yul\":197:198   */\n      0x00\n        /* \"#utility.yul\":194:195   */\n      dup1\n        /* \"#utility.yul\":187:199   */\n      revert\n        /* \"#utility.yul\":334:460   */\n    tag_109:\n        /* \"#utility.yul\":371:378   */\n      0x00\n        /* \"#utility.yul\":411:453   */\n      0xffffffffffffffffffffffffffffffffffffffff\n        /* \"#utility.yul\":404:409   */\n      dup3\n        /* \"#utility.yul\":400:454   */\n      and\n        /* \"#utility.yul\":389:454   */\n      swap1\n      pop\n        /* \"#utility.yul\":334:460   */\n      swap2\n      swap1\n      pop\n      jump\t// out\n        /* \"#utility.yul\":466:562   */\n    tag_110:\n        /* \"#utility.yul\":503:510   */\n      0x00\n        /* \"#utility.yul\":532:556   */\n      tag_168\n        /* \"#utility.yul\":550:555   */\n      dup3\n        /* \"#utility.yul\":532:556   */\n      tag_109\n      jump\t// in\n    tag_168:\n        /* \"#utility.yul\":521:556   */\n      swap1\n      pop\n        /* \"#utility.yul\":466:562   */\n      swap2\n      swap1\n      pop\n      jump\t// out\n        /* \"#utility.yul\":568:690   */\n    tag_111:\n        /* \"#utility.yul\":641:665   */\n      tag_170\n        /* \"#utility.yul\":659:664   */\n      dup2\n        /* \"#utility.yul\":641:665   */\n      tag_110\n      jump\t// in\n    tag_170:\n        /* \"#utility.yul\":634:639   */\n      dup2\n        /* \"#utility.yul\":631:666   */\n      eq\n        /* \"#utility.yul\":621:684   */\n      tag_171\n      jumpi\n        /* \"#utility.yul\":680:681   */\n      0x00\n        /* \"#utility.yul\":677:678   */\n      dup1\n        /* \"#utility.yul\":670:682   */\n      revert\n        /* \"#utility.yul\":621:684   */\n    tag_171:\n        /* \"#utility.yul\":568:690   */\n      pop\n      jump\t// out\n        /* \"#utility.yul\":696:835   */\n    tag_112:\n        /* \"#utility.yul\":742:747   */\n      0x00\n        /* \"#utility.yul\":780:786   */\n      dup2\n        /* \"#utility.yul\":767:787   */\n      calldataload\n        /* \"#utility.yul\":758:787   */\n      swap1\n      pop\n        /* \"#utility.yul\":796:829   */\n      tag_173\n        /* \"#utility.yul\":823:828   */\n      dup2\n        /* \"#utility.yul\":796:829   */\n      tag_111\n      jump\t// in\n    tag_173:\n        /* \"#utility.yul\":696:835   */\n      swap3\n      swap2\n      pop\n      pop\n      jump\t// out\n        /* \"#utility.yul\":841:918   */\n    tag_113:\n        /* \"#utility.yul\":878:885   */\n      0x00\n        /* \"#utility.yul\":907:912   */\n      dup2\n        /* \"#utility.yul\":896:912   */\n      swap1\n      pop\n        /* \"#utility.yul\":841:918   */\n      swap2\n      swap1\n      pop\n      jump\t// out\n        /* \"#utility.yul\":924:1046   */\n    tag_114:\n        /* \"#utility.yul\":997:1021   */\n      tag_176\n        /* \"#utility.yul\":1015:1020   */\n      dup2\n        /* \"#utility.yul\":997:1021   */\n      tag_113\n      jump\t// in\n    tag_176:\n        /* \"#utility.yul\":990:995   */\n      dup2\n        /* \"#utility.yul\":987:1022   */\n      eq\n        /* \"#utility.yul\":977:1040   */\n      tag_177\n      jumpi\n        /* \"#utility.yul\":1036:1037   */\n      0x00\n        /* \"#utility.yul\":1033:1034   */\n      dup1\n        /* \"#utility.yul\":1026:1038   */\n      revert\n        /* \"#utility.yul\":977:1040   */\n    tag_177:\n        /* \"#utility.yul\":924:1046   */\n      pop\n      jump\t// out\n        /* \"#utility.yul\":1052:1191   */\n    tag_115:\n        /* \"#utility.yul\":1098:1103   */\n      0x00\n        /* \"#utility.yul\":1136:1142   */\n      dup2\n        /* \"#utility.yul\":1123:1143   */\n      calldataload\n        /* \"#utility.yul\":1114:1143   */\n      swap1\n      pop\n        /* \"#utility.yul\":1152:1185   */\n      tag_179\n        /* \"#utility.yul\":1179:1184   */\n      dup2\n        /* \"#utility.yul\":1152:1185   */\n      tag_114\n      jump\t// in\n    tag_179:\n        /* \"#utility.yul\":1052:1191   */\n      swap3\n      swap2\n      pop\n      pop\n      jump\t// out\n        /* \"#utility.yul\":1197:1671   */\n    tag_17:\n        /* \"#utility.yul\":1265:1271   */\n      0x00\n        /* \"#utility.yul\":1273:1279   */\n      dup1\n        /* \"#utility.yul\":1322:1324   */\n      0x40\n        /* \"#utility.yul\":1310:1319   */\n      dup4\n        /* \"#utility.yul\":1301:1308   */\n      dup6\n        /* \"#utility.yul\":1297:1320   */\n      sub\n        /* \"#utility.yul\":1293:1325   */\n      slt\n        /* \"#utility.yul\":1290:1409   */\n      iszero\n      tag_181\n      jumpi\n        /* \"#utility.yul\":1328:1407   */\n      tag_182\n      tag_107\n      jump\t// in\n    tag_182:\n        /* \"#utility.yul\":1290:1409   */\n    tag_181:\n        /* \"#utility.yul\":1448:1449   */\n      0x00\n        /* \"#utility.yul\":1473:1526   */\n      tag_183\n        /* \"#utility.yul\":1518:1525   */\n      dup6\n        /* \"#utility.yul\":1509:1515   */\n      dup3\n        /* \"#utility.yul\":1498:1507   */\n      dup7\n        /* \"#utility.yul\":1494:1516   */\n      add\n        /* \"#utility.yul\":1473:1526   */\n      tag_112\n      jump\t// in\n    tag_183:\n        /* \"#utility.yul\":1463:1526   */\n      swap3\n      pop\n        /* \"#utility.yul\":1419:1536   */\n      pop\n        /* \"#utility.yul\":1575:1577   */\n      0x20\n        /* \"#utility.yul\":1601:1654   */\n      tag_184\n        /* \"#utility.yul\":1646:1653   */\n      dup6\n        /* \"#utility.yul\":1637:1643   */\n      dup3\n        /* \"#utility.yul\":1626:1635   */\n      dup7\n        /* \"#utility.yul\":1622:1644   */\n      add\n        /* \"#utility.yul\":1601:1654   */\n      tag_115\n      jump\t// in\n    tag_184:\n        /* \"#utility.yul\":1591:1654   */\n      swap2\n      pop\n        /* \"#utility.yul\":1546:1664   */\n      pop\n        /* \"#utility.yul\":1197:1671   */\n      swap3\n      pop\n      swap3\n      swap1\n      pop\n      jump\t// out\n        /* \"#utility.yul\":1677:1767   */\n    tag_116:\n        /* \"#utility.yul\":1711:1718   */\n      0x00\n        /* \"#utility.yul\":1754:1759   */\n      dup2\n        /* \"#utility.yul\":1747:1760   */\n      iszero\n        /* \"#utility.yul\":1740:1761   */\n      iszero\n        /* \"#utility.yul\":1729:1761   */\n      swap1\n      pop\n        /* \"#utility.yul\":1677:1767   */\n      swap2\n      swap1\n      pop\n      jump\t// out\n        /* \"#utility.yul\":1773:1882   */\n    tag_117:\n        /* \"#utility.yul\":1854:1875   */\n      tag_187\n        /* \"#utility.yul\":1869:1874   */\n      dup2\n        /* \"#utility.yul\":1854:1875   */\n      tag_116\n      jump\t// in\n    tag_187:\n        /* \"#utility.yul\":1849:1852   */\n      dup3\n        /* \"#utility.yul\":1842:1876   */\n      mstore\n        /* \"#utility.yul\":1773:1882   */\n      pop\n      pop\n      jump\t// out\n        /* \"#utility.yul\":1888:2098   */\n    tag_22:\n        /* \"#utility.yul\":1975:1979   */\n      0x00\n        /* \"#utility.yul\":2013:2015   */\n      0x20\n        /* \"#utility.yul\":2002:2011   */\n      dup3\n        /* \"#utility.yul\":1998:2016   */\n      add\n        /* \"#utility.yul\":1990:2016   */\n      swap1\n      pop\n        /* \"#utility.yul\":2026:2091   */\n      tag_189\n        /* \"#utility.yul\":2088:2089   */\n      0x00\n        /* \"#utility.yul\":2077:2086   */\n      dup4\n        /* \"#utility.yul\":2073:2090   */\n      add\n        /* \"#utility.yul\":2064:2070   */\n      dup5\n        /* \"#utility.yul\":2026:2091   */\n      tag_117\n      jump\t// in\n    tag_189:\n        /* \"#utility.yul\":1888:2098   */\n      swap3\n      swap2\n      pop\n      pop\n      jump\t// out\n        /* \"#utility.yul\":2104:2433   */\n    tag_25:\n        /* \"#utility.yul\":2163:2169   */\n      0x00\n        /* \"#utility.yul\":2212:2214   */\n      0x20\n        /* \"#utility.yul\":2200:2209   */\n      dup3\n        /* \"#utility.yul\":2191:2198   */\n      dup5\n        /* \"#utility.yul\":2187:2210   */\n      sub\n        /* \"#utility.yul\":2183:2215   */\n      slt\n        /* \"#utility.yul\":2180:2299   */\n      iszero\n      tag_191\n      jumpi\n        /* \"#utility.yul\":2218:2297   */\n      tag_192\n      tag_107\n      jump\t// in\n    tag_192:\n        /* \"#utility.yul\":2180:2299   */\n    tag_191:\n        /* \"#utility.yul\":2338:2339   */\n      0x00\n        /* \"#utility.yul\":2363:2416   */\n      tag_193\n        /* \"#utility.yul\":2408:2415   */\n      dup5\n        /* \"#utility.yul\":2399:2405   */\n      dup3\n        /* \"#utility.yul\":2388:2397   */\n      dup6\n        /* \"#utility.yul\":2384:2406   */\n      add\n        /* \"#utility.yul\":2363:2416   */\n      tag_112\n      jump\t// in\n    tag_193:\n        /* \"#utility.yul\":2353:2416   */\n      swap2\n      pop\n        /* \"#utility.yul\":2309:2426   */\n      pop\n        /* \"#utility.yul\":2104:2433   */\n      swap3\n      swap2\n      pop\n      pop\n      jump\t// out\n        /* \"#utility.yul\":2439:2557   */\n    tag_118:\n        /* \"#utility.yul\":2526:2550   */\n      tag_195\n        /* \"#utility.yul\":2544:2549   */\n      dup2\n        /* \"#utility.yul\":2526:2550   */\n      tag_113\n      jump\t// in\n    tag_195:\n        /* \"#utility.yul\":2521:2524   */\n      dup3\n        /* \"#utility.yul\":2514:2551   */\n      mstore\n        /* \"#utility.yul\":2439:2557   */\n      pop\n      pop\n      jump\t// out\n        /* \"#utility.yul\":2563:2785   */\n    tag_28:\n        /* \"#utility.yul\":2656:2660   */\n      0x00\n        /* \"#utility.yul\":2694:2696   */\n      0x20\n        /* \"#utility.yul\":2683:2692   */\n      dup3\n        /* \"#utility.yul\":2679:2697   */\n      add\n        /* \"#utility.yul\":2671:2697   */\n      swap1\n      pop\n        /* \"#utility.yul\":2707:2778   */\n      tag_197\n        /* \"#utility.yul\":2775:2776   */\n      0x00\n        /* \"#utility.yul\":2764:2773   */\n      dup4\n        /* \"#utility.yul\":2760:2777   */\n      add\n        /* \"#utility.yul\":2751:2757   */\n      dup5\n        /* \"#utility.yul\":2707:2778   */\n      tag_118\n      jump\t// in\n    tag_197:\n        /* \"#utility.yul\":2563:2785   */\n      swap3\n      swap2\n      pop\n      pop\n      jump\t// out\n        /* \"#utility.yul\":2791:2868   */\n    tag_119:\n        /* \"#utility.yul\":2828:2835   */\n      0x00\n        /* \"#utility.yul\":2857:2862   */\n      dup2\n        /* \"#utility.yul\":2846:2862   */\n      swap1\n      pop\n        /* \"#utility.yul\":2791:2868   */\n      swap2\n      swap1\n      pop\n      jump\t// out\n        /* \"#utility.yul\":2874:2992   */\n    tag_120:\n        /* \"#utility.yul\":2961:2985   */\n      tag_200\n        /* \"#utility.yul\":2979:2984   */\n      dup2\n        /* \"#utility.yul\":2961:2985   */\n      tag_119\n      jump\t// in\n    tag_200:\n        /* \"#utility.yul\":2956:2959   */\n      dup3\n        /* \"#utility.yul\":2949:2986   */\n      mstore\n        /* \"#utility.yul\":2874:2992   */\n      pop\n      pop\n      jump\t// out\n        /* \"#utility.yul\":2998:3220   */\n    tag_32:\n        /* \"#utility.yul\":3091:3095   */\n      0x00\n        /* \"#utility.yul\":3129:3131   */\n      0x20\n        /* \"#utility.yul\":3118:3127   */\n      dup3\n        /* \"#utility.yul\":3114:3132   */\n      add\n        /* \"#utility.yul\":3106:3132   */\n      swap1\n      pop\n        /* \"#utility.yul\":3142:3213   */\n      tag_202\n        /* \"#utility.yul\":3210:3211   */\n      0x00\n        /* \"#utility.yul\":3199:3208   */\n      dup4\n        /* \"#utility.yul\":3195:3212   */\n      add\n        /* \"#utility.yul\":3186:3192   */\n      dup5\n        /* \"#utility.yul\":3142:3213   */\n      tag_120\n      jump\t// in\n    tag_202:\n        /* \"#utility.yul\":2998:3220   */\n      swap3\n      swap2\n      pop\n      pop\n      jump\t// out\n        /* \"#utility.yul\":3226:3324   */\n    tag_121:\n        /* \"#utility.yul\":3277:3283   */\n      0x00\n        /* \"#utility.yul\":3311:3316   */\n      dup2\n        /* \"#utility.yul\":3305:3317   */\n      mload\n        /* \"#utility.yul\":3295:3317   */\n      swap1\n      pop\n        /* \"#utility.yul\":3226:3324   */\n      swap2\n      swap1\n      pop\n      jump\t// out\n        /* \"#utility.yul\":3330:3498   */\n    tag_122:\n        /* \"#utility.yul\":3413:3424   */\n      0x00\n        /* \"#utility.yul\":3447:3453   */\n      dup3\n        /* \"#utility.yul\":3442:3445   */\n      dup3\n        /* \"#utility.yul\":3435:3454   */\n      mstore\n        /* \"#utility.yul\":3487:3491   */\n      0x20\n        /* \"#utility.yul\":3482:3485   */\n      dup3\n        /* \"#utility.yul\":3478:3492   */\n      add\n        /* \"#utility.yul\":3463:3492   */\n      swap1\n      pop\n        /* \"#utility.yul\":3330:3498   */\n      swap3\n      swap2\n      pop\n      pop\n      jump\t// out\n        /* \"#utility.yul\":3504:3750   */\n    tag_123:\n        /* \"#utility.yul\":3585:3586   */\n      0x00\n        /* \"#utility.yul\":3595:3708   */\n    tag_206:\n        /* \"#utility.yul\":3609:3615   */\n      dup4\n        /* \"#utility.yul\":3606:3607   */\n      dup2\n        /* \"#utility.yul\":3603:3616   */\n      lt\n        /* \"#utility.yul\":3595:3708   */\n      iszero\n      tag_208\n      jumpi\n        /* \"#utility.yul\":3694:3695   */\n      dup1\n        /* \"#utility.yul\":3689:3692   */\n      dup3\n        /* \"#utility.yul\":3685:3696   */\n      add\n        /* \"#utility.yul\":3679:3697   */\n      mload\n        /* \"#utility.yul\":3675:3676   */\n      dup2\n        /* \"#utility.yul\":3670:3673   */\n      dup5\n        /* \"#utility.yul\":3666:3677   */\n      add\n        /* \"#utility.yul\":3659:3698   */\n      mstore\n        /* \"#utility.yul\":3631:3633   */\n      0x20\n        /* \"#utility.yul\":3628:3629   */\n      dup2\n        /* \"#utility.yul\":3624:3634   */\n      add\n        /* \"#utility.yul\":3619:3634   */\n      swap1\n      pop\n        /* \"#utility.yul\":3595:3708   */\n      jump(tag_206)\n    tag_208:\n        /* \"#utility.yul\":3742:3743   */\n      0x00\n        /* \"#utility.yul\":3733:3739   */\n      dup5\n        /* \"#utility.yul\":3728:3731   */\n      dup5\n        /* \"#utility.yul\":3724:3740   */\n      add\n        /* \"#utility.yul\":3717:3744   */\n      mstore\n        /* \"#utility.yul\":3566:3750   */\n      pop\n        /* \"#utility.yul\":3504:3750   */\n      pop\n      pop\n      pop\n      jump\t// out\n        /* \"#utility.yul\":3756:3858   */\n    tag_124:\n        /* \"#utility.yul\":3797:3803   */\n      0x00\n        /* \"#utility.yul\":3848:3850   */\n      0x1f\n        /* \"#utility.yul\":3844:3851   */\n      not\n        /* \"#utility.yul\":3839:3841   */\n      0x1f\n        /* \"#utility.yul\":3832:3837   */\n      dup4\n        /* \"#utility.yul\":3828:3842   */\n      add\n        /* \"#utility.yul\":3824:3852   */\n      and\n        /* \"#utility.yul\":3814:3852   */\n      swap1\n      pop\n        /* \"#utility.yul\":3756:3858   */\n      swap2\n      swap1\n      pop\n      jump\t// out\n        /* \"#utility.yul\":3864:4237   */\n    tag_125:\n        /* \"#utility.yul\":3950:3953   */\n      0x00\n        /* \"#utility.yul\":3978:4016   */\n      tag_211\n        /* \"#utility.yul\":4010:4015   */\n      dup3\n        /* \"#utility.yul\":3978:4016   */\n      tag_121\n      jump\t// in\n    tag_211:\n        /* \"#utility.yul\":4032:4102   */\n      tag_212\n        /* \"#utility.yul\":4095:4101   */\n      dup2\n        /* \"#utility.yul\":4090:4093   */\n      dup6\n        /* \"#utility.yul\":4032:4102   */\n      tag_122\n      jump\t// in\n    tag_212:\n        /* \"#utility.yul\":4025:4102   */\n      swap4\n      pop\n        /* \"#utility.yul\":4111:4176   */\n      tag_213\n        /* \"#utility.yul\":4169:4175   */\n      dup2\n        /* \"#utility.yul\":4164:4167   */\n      dup6\n        /* \"#utility.yul\":4157:4161   */\n      0x20\n        /* \"#utility.yul\":4150:4155   */\n      dup7\n        /* \"#utility.yul\":4146:4162   */\n      add\n        /* \"#utility.yul\":4111:4176   */\n      tag_123\n      jump\t// in\n    tag_213:\n        /* \"#utility.yul\":4201:4230   */\n      tag_214\n        /* \"#utility.yul\":4223:4229   */\n      dup2\n        /* \"#utility.yul\":4201:4230   */\n      tag_124\n      jump\t// in\n    tag_214:\n        /* \"#utility.yul\":4196:4199   */\n      dup5\n        /* \"#utility.yul\":4192:4231   */\n      add\n        /* \"#utility.yul\":4185:4231   */\n      swap2\n      pop\n        /* \"#utility.yul\":3954:4237   */\n      pop\n        /* \"#utility.yul\":3864:4237   */\n      swap3\n      swap2\n      pop\n      pop\n      jump\t// out\n        /* \"#utility.yul\":4243:4552   */\n    tag_36:\n        /* \"#utility.yul\":4354:4358   */\n      0x00\n        /* \"#utility.yul\":4392:4394   */\n      0x20\n        /* \"#utility.yul\":4381:4390   */\n      dup3\n        /* \"#utility.yul\":4377:4395   */\n      add\n        /* \"#utility.yul\":4369:4395   */\n      swap1\n      pop\n        /* \"#utility.yul\":4441:4450   */\n      dup2\n        /* \"#utility.yul\":4435:4439   */\n      dup2\n        /* \"#utility.yul\":4431:4451   */\n      sub\n        /* \"#utility.yul\":4427:4428   */\n      0x00\n        /* \"#utility.yul\":4416:4425   */\n      dup4\n        /* \"#utility.yul\":4412:4429   */\n      add\n        /* \"#utility.yul\":4405:4452   */\n      mstore\n        /* \"#utility.yul\":4469:4545   */\n      tag_216\n        /* \"#utility.yul\":4540:4544   */\n      dup2\n        /* \"#utility.yul\":4531:4537   */\n      dup5\n        /* \"#utility.yul\":4469:4545   */\n      tag_125\n      jump\t// in\n    tag_216:\n        /* \"#utility.yul\":4461:4545   */\n      swap1\n      pop\n        /* \"#utility.yul\":4243:4552   */\n      swap3\n      swap2\n      pop\n      pop\n      jump\t// out\n        /* \"#utility.yul\":4558:4676   */\n    tag_126:\n        /* \"#utility.yul\":4645:4669   */\n      tag_218\n        /* \"#utility.yul\":4663:4668   */\n      dup2\n        /* \"#utility.yul\":4645:4669   */\n      tag_110\n      jump\t// in\n    tag_218:\n        /* \"#utility.yul\":4640:4643   */\n      dup3\n        /* \"#utility.yul\":4633:4670   */\n      mstore\n        /* \"#utility.yul\":4558:4676   */\n      pop\n      pop\n      jump\t// out\n        /* \"#utility.yul\":4682:4904   */\n    tag_49:\n        /* \"#utility.yul\":4775:4779   */\n      0x00\n        /* \"#utility.yul\":4813:4815   */\n      0x20\n        /* \"#utility.yul\":4802:4811   */\n      dup3\n        /* \"#utility.yul\":4798:4816   */\n      add\n        /* \"#utility.yul\":4790:4816   */\n      swap1\n      pop\n        /* \"#utility.yul\":4826:4897   */\n      tag_220\n        /* \"#utility.yul\":4894:4895   */\n      0x00\n        /* \"#utility.yul\":4883:4892   */\n      dup4\n        /* \"#utility.yul\":4879:4896   */\n      add\n        /* \"#utility.yul\":4870:4876   */\n      dup5\n        /* \"#utility.yul\":4826:4897   */\n      tag_126\n      jump\t// in\n    tag_220:\n        /* \"#utility.yul\":4682:4904   */\n      swap3\n      swap2\n      pop\n      pop\n      jump\t// out\n        /* \"#utility.yul\":4910:5529   */\n    tag_55:\n        /* \"#utility.yul\":4987:4993   */\n      0x00\n        /* \"#utility.yul\":4995:5001   */\n      dup1\n        /* \"#utility.yul\":5003:5009   */\n      0x00\n        /* \"#utility.yul\":5052:5054   */\n      0x60\n        /* \"#utility.yul\":5040:5049   */\n      dup5\n        /* \"#utility.yul\":5031:5038   */\n      dup7\n        /* \"#utility.yul\":5027:5050   */\n      sub\n        /* \"#utility.yul\":5023:5055   */\n      slt\n        /* \"#utility.yul\":5020:5139   */\n      iszero\n      tag_222\n      jumpi\n        /* \"#utility.yul\":5058:5137   */\n      tag_223\n      tag_107\n      jump\t// in\n    tag_223:\n        /* \"#utility.yul\":5020:5139   */\n    tag_222:\n        /* \"#utility.yul\":5178:5179   */\n      0x00\n        /* \"#utility.yul\":5203:5256   */\n      tag_224\n        /* \"#utility.yul\":5248:5255   */\n      dup7\n        /* \"#utility.yul\":5239:5245   */\n      dup3\n        /* \"#utility.yul\":5228:5237   */\n      dup8\n        /* \"#utility.yul\":5224:5246   */\n      add\n        /* \"#utility.yul\":5203:5256   */\n      tag_112\n      jump\t// in\n    tag_224:\n        /* \"#utility.yul\":5193:5256   */\n      swap4\n      pop\n        /* \"#utility.yul\":5149:5266   */\n      pop\n        /* \"#utility.yul\":5305:5307   */\n      0x20\n        /* \"#utility.yul\":5331:5384   */\n      tag_225\n        /* \"#utility.yul\":5376:5383   */\n      dup7\n        /* \"#utility.yul\":5367:5373   */\n      dup3\n        /* \"#utility.yul\":5356:5365   */\n      dup8\n        /* \"#utility.yul\":5352:5374   */\n      add\n        /* \"#utility.yul\":5331:5384   */\n      tag_112\n      jump\t// in\n    tag_225:\n        /* \"#utility.yul\":5321:5384   */\n      swap3\n      pop\n        /* \"#utility.yul\":5276:5394   */\n      pop\n        /* \"#utility.yul\":5433:5435   */\n      0x40\n        /* \"#utility.yul\":5459:5512   */\n      tag_226\n        /* \"#utility.yul\":5504:5511   */\n      dup7\n        /* \"#utility.yul\":5495:5501   */\n      dup3\n        /* \"#utility.yul\":5484:5493   */\n      dup8\n        /* \"#utility.yul\":5480:5502   */\n      add\n        /* \"#utility.yul\":5459:5512   */\n      tag_115\n      jump\t// in\n    tag_226:\n        /* \"#utility.yul\":5449:5512   */\n      swap2\n      pop\n        /* \"#utility.yul\":5404:5522   */\n      pop\n        /* \"#utility.yul\":4910:5529   */\n      swap3\n      pop\n      swap3\n      pop\n      swap3\n      jump\t// out\n        /* \"#utility.yul\":5535:5704   */\n    tag_127:\n        /* \"#utility.yul\":5619:5630   */\n      0x00\n        /* \"#utility.yul\":5653:5659   */\n      dup3\n        /* \"#utility.yul\":5648:5651   */\n      dup3\n        /* \"#utility.yul\":5641:5660   */\n      mstore\n        /* \"#utility.yul\":5693:5697   */\n      0x20\n        /* \"#utility.yul\":5688:5691   */\n      dup3\n        /* \"#utility.yul\":5684:5698   */\n      add\n        /* \"#utility.yul\":5669:5698   */\n      swap1\n      pop\n        /* \"#utility.yul\":5535:5704   */\n      swap3\n      swap2\n      pop\n      pop\n      jump\t// out\n        /* \"#utility.yul\":5710:5877   */\n    tag_128:\n        /* \"#utility.yul\":5850:5869   */\n      0x556e61626c6520746f20617070726f7665000000000000000000000000000000\n        /* \"#utility.yul\":5846:5847   */\n      0x00\n        /* \"#utility.yul\":5838:5844   */\n      dup3\n        /* \"#utility.yul\":5834:5848   */\n      add\n        /* \"#utility.yul\":5827:5870   */\n      mstore\n        /* \"#utility.yul\":5710:5877   */\n      pop\n      jump\t// out\n        /* \"#utility.yul\":5883:6249   */\n    tag_129:\n        /* \"#utility.yul\":6025:6028   */\n      0x00\n        /* \"#utility.yul\":6046:6113   */\n      tag_230\n        /* \"#utility.yul\":6110:6112   */\n      0x11\n        /* \"#utility.yul\":6105:6108   */\n      dup4\n        /* \"#utility.yul\":6046:6113   */\n      tag_127\n      jump\t// in\n    tag_230:\n        /* \"#utility.yul\":6039:6113   */\n      swap2\n      pop\n        /* \"#utility.yul\":6122:6215   */\n      tag_231\n        /* \"#utility.yul\":6211:6214   */\n      dup3\n        /* \"#utility.yul\":6122:6215   */\n      tag_128\n      jump\t// in\n    tag_231:\n        /* \"#utility.yul\":6240:6242   */\n      0x20\n        /* \"#utility.yul\":6235:6238   */\n      dup3\n        /* \"#utility.yul\":6231:6243   */\n      add\n        /* \"#utility.yul\":6224:6243   */\n      swap1\n      pop\n        /* \"#utility.yul\":5883:6249   */\n      swap2\n      swap1\n      pop\n      jump\t// out\n        /* \"#utility.yul\":6255:6674   */\n    tag_61:\n        /* \"#utility.yul\":6421:6425   */\n      0x00\n        /* \"#utility.yul\":6459:6461   */\n      0x20\n        /* \"#utility.yul\":6448:6457   */\n      dup3\n        /* \"#utility.yul\":6444:6462   */\n      add\n        /* \"#utility.yul\":6436:6462   */\n      swap1\n      pop\n        /* \"#utility.yul\":6508:6517   */\n      dup2\n        /* \"#utility.yul\":6502:6506   */\n      dup2\n        /* \"#utility.yul\":6498:6518   */\n      sub\n        /* \"#utility.yul\":6494:6495   */\n      0x00\n        /* \"#utility.yul\":6483:6492   */\n      dup4\n        /* \"#utility.yul\":6479:6496   */\n      add\n        /* \"#utility.yul\":6472:6519   */\n      mstore\n        /* \"#utility.yul\":6536:6667   */\n      tag_233\n        /* \"#utility.yul\":6662:6666   */\n      dup2\n        /* \"#utility.yul\":6536:6667   */\n      tag_129\n      jump\t// in\n    tag_233:\n        /* \"#utility.yul\":6528:6667   */\n      swap1\n      pop\n        /* \"#utility.yul\":6255:6674   */\n      swap2\n      swap1\n      pop\n      jump\t// out\n        /* \"#utility.yul\":6680:6860   */\n    tag_130:\n        /* \"#utility.yul\":6820:6852   */\n      0x596f7520617265206e6f7420616c6c6f77656420746f20757067726164650000\n        /* \"#utility.yul\":6816:6817   */\n      0x00\n        /* \"#utility.yul\":6808:6814   */\n      dup3\n        /* \"#utility.yul\":6804:6818   */\n      add\n        /* \"#utility.yul\":6797:6853   */\n      mstore\n        /* \"#utility.yul\":6680:6860   */\n      pop\n      jump\t// out\n        /* \"#utility.yul\":6866:7232   */\n    tag_131:\n        /* \"#utility.yul\":7008:7011   */\n      0x00\n        /* \"#utility.yul\":7029:7096   */\n      tag_236\n        /* \"#utility.yul\":7093:7095   */\n      0x1e\n        /* \"#utility.yul\":7088:7091   */\n      dup4\n        /* \"#utility.yul\":7029:7096   */\n      tag_127\n      jump\t// in\n    tag_236:\n        /* \"#utility.yul\":7022:7096   */\n      swap2\n      pop\n        /* \"#utility.yul\":7105:7198   */\n      tag_237\n        /* \"#utility.yul\":7194:7197   */\n      dup3\n        /* \"#utility.yul\":7105:7198   */\n      tag_130\n      jump\t// in\n    tag_237:\n        /* \"#utility.yul\":7223:7225   */\n      0x20\n        /* \"#utility.yul\":7218:7221   */\n      dup3\n        /* \"#utility.yul\":7214:7226   */\n      add\n        /* \"#utility.yul\":7207:7226   */\n      swap1\n      pop\n        /* \"#utility.yul\":6866:7232   */\n      swap2\n      swap1\n      pop\n      jump\t// out\n        /* \"#utility.yul\":7238:7657   */\n    tag_68:\n        /* \"#utility.yul\":7404:7408   */\n      0x00\n        /* \"#utility.yul\":7442:7444   */\n      0x20\n        /* \"#utility.yul\":7431:7440   */\n      dup3\n        /* \"#utility.yul\":7427:7445   */\n      add\n        /* \"#utility.yul\":7419:7445   */\n      swap1\n      pop\n        /* \"#utility.yul\":7491:7500   */\n      dup2\n        /* \"#utility.yul\":7485:7489   */\n      dup2\n        /* \"#utility.yul\":7481:7501   */\n      sub\n        /* \"#utility.yul\":7477:7478   */\n      0x00\n        /* \"#utility.yul\":7466:7475   */\n      dup4\n        /* \"#utility.yul\":7462:7479   */\n      add\n        /* \"#utility.yul\":7455:7502   */\n      mstore\n        /* \"#utility.yul\":7519:7650   */\n      tag_239\n        /* \"#utility.yul\":7645:7649   */\n      dup2\n        /* \"#utility.yul\":7519:7650   */\n      tag_131\n      jump\t// in\n    tag_239:\n        /* \"#utility.yul\":7511:7650   */\n      swap1\n      pop\n        /* \"#utility.yul\":7238:7657   */\n      swap2\n      swap1\n      pop\n      jump\t// out\n        /* \"#utility.yul\":7663:7841   */\n    tag_132:\n        /* \"#utility.yul\":7803:7833   */\n      0x436f6e747261637420616c726561647920496e697469616c697a656400000000\n        /* \"#utility.yul\":7799:7800   */\n      0x00\n        /* \"#utility.yul\":7791:7797   */\n      dup3\n        /* \"#utility.yul\":7787:7801   */\n      add\n        /* \"#utility.yul\":7780:7834   */\n      mstore\n        /* \"#utility.yul\":7663:7841   */\n      pop\n      jump\t// out\n        /* \"#utility.yul\":7847:8213   */\n    tag_133:\n        /* \"#utility.yul\":7989:7992   */\n      0x00\n        /* \"#utility.yul\":8010:8077   */\n      tag_242\n        /* \"#utility.yul\":8074:8076   */\n      0x1c\n        /* \"#utility.yul\":8069:8072   */\n      dup4\n        /* \"#utility.yul\":8010:8077   */\n      tag_127\n      jump\t// in\n    tag_242:\n        /* \"#utility.yul\":8003:8077   */\n      swap2\n      pop\n        /* \"#utility.yul\":8086:8179   */\n      tag_243\n        /* \"#utility.yul\":8175:8178   */\n      dup3\n        /* \"#utility.yul\":8086:8179   */\n      tag_132\n      jump\t// in\n    tag_243:\n        /* \"#utility.yul\":8204:8206   */\n      0x20\n        /* \"#utility.yul\":8199:8202   */\n      dup3\n        /* \"#utility.yul\":8195:8207   */\n      add\n        /* \"#utility.yul\":8188:8207   */\n      swap1\n      pop\n        /* \"#utility.yul\":7847:8213   */\n      swap2\n      swap1\n      pop\n      jump\t// out\n        /* \"#utility.yul\":8219:8638   */\n    tag_75:\n        /* \"#utility.yul\":8385:8389   */\n      0x00\n        /* \"#utility.yul\":8423:8425   */\n      0x20\n        /* \"#utility.yul\":8412:8421   */\n      dup3\n        /* \"#utility.yul\":8408:8426   */\n      add\n        /* \"#utility.yul\":8400:8426   */\n      swap1\n      pop\n        /* \"#utility.yul\":8472:8481   */\n      dup2\n        /* \"#utility.yul\":8466:8470   */\n      dup2\n        /* \"#utility.yul\":8462:8482   */\n      sub\n        /* \"#utility.yul\":8458:8459   */\n      0x00\n        /* \"#utility.yul\":8447:8456   */\n      dup4\n        /* \"#utility.yul\":8443:8460   */\n      add\n        /* \"#utility.yul\":8436:8483   */\n      mstore\n        /* \"#utility.yul\":8500:8631   */\n      tag_245\n        /* \"#utility.yul\":8626:8630   */\n      dup2\n        /* \"#utility.yul\":8500:8631   */\n      tag_133\n      jump\t// in\n    tag_245:\n        /* \"#utility.yul\":8492:8631   */\n      swap1\n      pop\n        /* \"#utility.yul\":8219:8638   */\n      swap2\n      swap1\n      pop\n      jump\t// out\n        /* \"#utility.yul\":8644:8743   */\n    tag_134:\n        /* \"#utility.yul\":8696:8702   */\n      0x00\n        /* \"#utility.yul\":8730:8735   */\n      dup2\n        /* \"#utility.yul\":8724:8736   */\n      mload\n        /* \"#utility.yul\":8714:8736   */\n      swap1\n      pop\n        /* \"#utility.yul\":8644:8743   */\n      swap2\n      swap1\n      pop\n      jump\t// out\n        /* \"#utility.yul\":8749:8929   */\n    tag_135:\n        /* \"#utility.yul\":8797:8874   */\n      0x4e487b7100000000000000000000000000000000000000000000000000000000\n        /* \"#utility.yul\":8794:8795   */\n      0x00\n        /* \"#utility.yul\":8787:8875   */\n      mstore\n        /* \"#utility.yul\":8894:8898   */\n      0x41\n        /* \"#utility.yul\":8891:8892   */\n      0x04\n        /* \"#utility.yul\":8884:8899   */\n      mstore\n        /* \"#utility.yul\":8918:8922   */\n      0x24\n        /* \"#utility.yul\":8915:8916   */\n      0x00\n        /* \"#utility.yul\":8908:8923   */\n      revert\n        /* \"#utility.yul\":8935:9115   */\n    tag_136:\n        /* \"#utility.yul\":8983:9060   */\n      0x4e487b7100000000000000000000000000000000000000000000000000000000\n        /* \"#utility.yul\":8980:8981   */\n      0x00\n        /* \"#utility.yul\":8973:9061   */\n      mstore\n        /* \"#utility.yul\":9080:9084   */\n      0x22\n        /* \"#utility.yul\":9077:9078   */\n      0x04\n        /* \"#utility.yul\":9070:9085   */\n      mstore\n        /* \"#utility.yul\":9104:9108   */\n      0x24\n        /* \"#utility.yul\":9101:9102   */\n      0x00\n        /* \"#utility.yul\":9094:9109   */\n      revert\n        /* \"#utility.yul\":9121:9441   */\n    tag_137:\n        /* \"#utility.yul\":9165:9171   */\n      0x00\n        /* \"#utility.yul\":9202:9203   */\n      0x02\n        /* \"#utility.yul\":9196:9200   */\n      dup3\n        /* \"#utility.yul\":9192:9204   */\n      div\n        /* \"#utility.yul\":9182:9204   */\n      swap1\n      pop\n        /* \"#utility.yul\":9249:9250   */\n      0x01\n        /* \"#utility.yul\":9243:9247   */\n      dup3\n        /* \"#utility.yul\":9239:9251   */\n      and\n        /* \"#utility.yul\":9270:9288   */\n      dup1\n        /* \"#utility.yul\":9260:9341   */\n      tag_250\n      jumpi\n        /* \"#utility.yul\":9326:9330   */\n      0x7f\n        /* \"#utility.yul\":9318:9324   */\n      dup3\n        /* \"#utility.yul\":9314:9331   */\n      and\n        /* \"#utility.yul\":9304:9331   */\n      swap2\n      pop\n        /* \"#utility.yul\":9260:9341   */\n    tag_250:\n        /* \"#utility.yul\":9388:9390   */\n      0x20\n        /* \"#utility.yul\":9380:9386   */\n      dup3\n        /* \"#utility.yul\":9377:9391   */\n      lt\n        /* \"#utility.yul\":9357:9375   */\n      dup2\n        /* \"#utility.yul\":9354:9392   */\n      sub\n        /* \"#utility.yul\":9351:9435   */\n      tag_251\n      jumpi\n        /* \"#utility.yul\":9407:9425   */\n      tag_252\n      tag_136\n      jump\t// in\n    tag_252:\n        /* \"#utility.yul\":9351:9435   */\n    tag_251:\n        /* \"#utility.yul\":9172:9441   */\n      pop\n        /* \"#utility.yul\":9121:9441   */\n      swap2\n      swap1\n      pop\n      jump\t// out\n        /* \"#utility.yul\":9447:9588   */\n    tag_138:\n        /* \"#utility.yul\":9496:9500   */\n      0x00\n        /* \"#utility.yul\":9519:9522   */\n      dup2\n        /* \"#utility.yul\":9511:9522   */\n      swap1\n      pop\n        /* \"#utility.yul\":9542:9545   */\n      dup2\n        /* \"#utility.yul\":9539:9540   */\n      0x00\n        /* \"#utility.yul\":9532:9546   */\n      mstore\n        /* \"#utility.yul\":9576:9580   */\n      0x20\n        /* \"#utility.yul\":9573:9574   */\n      0x00\n        /* \"#utility.yul\":9563:9581   */\n      keccak256\n        /* \"#utility.yul\":9555:9581   */\n      swap1\n      pop\n        /* \"#utility.yul\":9447:9588   */\n      swap2\n      swap1\n      pop\n      jump\t// out\n        /* \"#utility.yul\":9594:9687   */\n    tag_139:\n        /* \"#utility.yul\":9631:9637   */\n      0x00\n        /* \"#utility.yul\":9678:9680   */\n      0x20\n        /* \"#utility.yul\":9673:9675   */\n      0x1f\n        /* \"#utility.yul\":9666:9671   */\n      dup4\n        /* \"#utility.yul\":9662:9676   */\n      add\n        /* \"#utility.yul\":9658:9681   */\n      div\n        /* \"#utility.yul\":9648:9681   */\n      swap1\n      pop\n        /* \"#utility.yul\":9594:9687   */\n      swap2\n      swap1\n      pop\n      jump\t// out\n        /* \"#utility.yul\":9693:9800   */\n    tag_140:\n        /* \"#utility.yul\":9737:9745   */\n      0x00\n        /* \"#utility.yul\":9787:9792   */\n      dup3\n        /* \"#utility.yul\":9781:9785   */\n      dup3\n        /* \"#utility.yul\":9777:9793   */\n      shl\n        /* \"#utility.yul\":9756:9793   */\n      swap1\n      pop\n        /* \"#utility.yul\":9693:9800   */\n      swap3\n      swap2\n      pop\n      pop\n      jump\t// out\n        /* \"#utility.yul\":9806:10199   */\n    tag_141:\n        /* \"#utility.yul\":9875:9881   */\n      0x00\n        /* \"#utility.yul\":9925:9926   */\n      0x08\n        /* \"#utility.yul\":9913:9923   */\n      dup4\n        /* \"#utility.yul\":9909:9927   */\n      mul\n        /* \"#utility.yul\":9948:10045   */\n      tag_257\n        /* \"#utility.yul\":9978:10044   */\n      0xffffffffffffffffffffffffffffffffffffffffffffffffffffffffffffffff\n        /* \"#utility.yul\":9967:9976   */\n      dup3\n        /* \"#utility.yul\":9948:10045   */\n      tag_140\n      jump\t// in\n    tag_257:\n        /* \"#utility.yul\":10066:10105   */\n      tag_258\n        /* \"#utility.yul\":10096:10104   */\n      dup7\n        /* \"#utility.yul\":10085:10094   */\n      dup4\n        /* \"#utility.yul\":10066:10105   */\n      tag_140\n      jump\t// in\n    tag_258:\n        /* \"#utility.yul\":10054:10105   */\n      swap6\n      pop\n        /* \"#utility.yul\":10138:10142   */\n      dup1\n        /* \"#utility.yul\":10134:10143   */\n      not\n        /* \"#utility.yul\":10127:10132   */\n      dup5\n        /* \"#utility.yul\":10123:10144   */\n      and\n        /* \"#utility.yul\":10114:10144   */\n      swap4\n      pop\n        /* \"#utility.yul\":10187:10191   */\n      dup1\n        /* \"#utility.yul\":10177:10185   */\n      dup7\n        /* \"#utility.yul\":10173:10192   */\n      and\n        /* \"#utility.yul\":10166:10171   */\n      dup5\n        /* \"#utility.yul\":10163:10193   */\n      or\n        /* \"#utility.yul\":10153:10193   */\n      swap3\n      pop\n        /* \"#utility.yul\":9882:10199   */\n      pop\n      pop\n        /* \"#utility.yul\":9806:10199   */\n      swap4\n      swap3\n      pop\n      pop\n      pop\n      jump\t// out\n        /* \"#utility.yul\":10205:10265   */\n    tag_142:\n        /* \"#utility.yul\":10233:10236   */\n      0x00\n        /* \"#utility.yul\":10254:10259   */\n      dup2\n        /* \"#utility.yul\":10247:10259   */\n      swap1\n      pop\n        /* \"#utility.yul\":10205:10265   */\n      swap2\n      swap1\n      pop\n      jump\t// out\n        /* \"#utility.yul\":10271:10413   */\n    tag_143:\n        /* \"#utility.yul\":10321:10330   */\n      0x00\n        /* \"#utility.yul\":10354:10407   */\n      tag_261\n        /* \"#utility.yul\":10372:10406   */\n      tag_262\n        /* \"#utility.yul\":10381:10405   */\n      tag_263\n        /* \"#utility.yul\":10399:10404   */\n      dup5\n        /* \"#utility.yul\":10381:10405   */\n      tag_113\n      jump\t// in\n    tag_263:\n        /* \"#utility.yul\":10372:10406   */\n      tag_142\n      jump\t// in\n    tag_262:\n        /* \"#utility.yul\":10354:10407   */\n      tag_113\n      jump\t// in\n    tag_261:\n        /* \"#utility.yul\":10341:10407   */\n      swap1\n      pop\n        /* \"#utility.yul\":10271:10413   */\n      swap2\n      swap1\n      pop\n      jump\t// out\n        /* \"#utility.yul\":10419:10494   */\n    tag_144:\n        /* \"#utility.yul\":10462:10465   */\n      0x00\n        /* \"#utility.yul\":10483:10488   */\n      dup2\n        /* \"#utility.yul\":10476:10488   */\n      swap1\n      pop\n        /* \"#utility.yul\":10419:10494   */\n      swap2\n      swap1\n      pop\n      jump\t// out\n        /* \"#utility.yul\":10500:10769   */\n    tag_145:\n        /* \"#utility.yul\":10610:10649   */\n      tag_266\n        /* \"#utility.yul\":10641:10648   */\n      dup4\n        /* \"#utility.yul\":10610:10649   */\n      tag_143\n      jump\t// in\n    tag_266:\n        /* \"#utility.yul\":10671:10762   */\n      tag_267\n        /* \"#utility.yul\":10720:10761   */\n      tag_268\n        /* \"#utility.yul\":10744:10760   */\n      dup3\n        /* \"#utility.yul\":10720:10761   */\n      tag_144\n      jump\t// in\n    tag_268:\n        /* \"#utility.yul\":10712:10718   */\n      dup5\n        /* \"#utility.yul\":10705:10709   */\n      dup5\n        /* \"#utility.yul\":10699:10710   */\n      sload\n        /* \"#utility.yul\":10671:10762   */\n      tag_141\n      jump\t// in\n    tag_267:\n        /* \"#utility.yul\":10665:10669   */\n      dup3\n        /* \"#utility.yul\":10658:10763   */\n      sstore\n        /* \"#utility.yul\":10576:10769   */\n      pop\n        /* \"#utility.yul\":10500:10769   */\n      pop\n      pop\n      pop\n      jump\t// out\n        /* \"#utility.yul\":10775:10848   */\n    tag_146:\n        /* \"#utility.yul\":10820:10823   */\n      0x00\n        /* \"#utility.yul\":10775:10848   */\n      swap1\n      jump\t// out\n        /* \"#utility.yul\":10854:11043   */\n    tag_147:\n        /* \"#utility.yul\":10931:10963   */\n      tag_271\n      tag_146\n      jump\t// in\n    tag_271:\n        /* \"#utility.yul\":10972:11037   */\n      tag_272\n        /* \"#utility.yul\":11030:11036   */\n      dup2\n        /* \"#utility.yul\":11022:11028   */\n      dup5\n        /* \"#utility.yul\":11016:11020   */\n      dup5\n        /* \"#utility.yul\":10972:11037   */\n      tag_145\n      jump\t// in\n    tag_272:\n        /* \"#utility.yul\":10907:11043   */\n      pop\n        /* \"#utility.yul\":10854:11043   */\n      pop\n      pop\n      jump\t// out\n        /* \"#utility.yul\":11049:11235   */\n    tag_148:\n        /* \"#utility.yul\":11109:11229   */\n    tag_274:\n        /* \"#utility.yul\":11126:11129   */\n      dup2\n        /* \"#utility.yul\":11119:11124   */\n      dup2\n        /* \"#utility.yul\":11116:11130   */\n      lt\n        /* \"#utility.yul\":11109:11229   */\n      iszero\n      tag_276\n      jumpi\n        /* \"#utility.yul\":11180:11219   */\n      tag_277\n        /* \"#utility.yul\":11217:11218   */\n      0x00\n        /* \"#utility.yul\":11210:11215   */\n      dup3\n        /* \"#utility.yul\":11180:11219   */\n      tag_147\n      jump\t// in\n    tag_277:\n        /* \"#utility.yul\":11153:11154   */\n      0x01\n        /* \"#utility.yul\":11146:11151   */\n      dup2\n        /* \"#utility.yul\":11142:11155   */\n      add\n        /* \"#utility.yul\":11133:11155   */\n      swap1\n      pop\n        /* \"#utility.yul\":11109:11229   */\n      jump(tag_274)\n    tag_276:\n        /* \"#utility.yul\":11049:11235   */\n      pop\n      pop\n      jump\t// out\n        /* \"#utility.yul\":11241:11784   */\n    tag_149:\n        /* \"#utility.yul\":11342:11344   */\n      0x1f\n        /* \"#utility.yul\":11337:11340   */\n      dup3\n        /* \"#utility.yul\":11334:11345   */\n      gt\n        /* \"#utility.yul\":11331:11777   */\n      iszero\n      tag_279\n      jumpi\n        /* \"#utility.yul\":11376:11414   */\n      tag_280\n        /* \"#utility.yul\":11408:11413   */\n      dup2\n        /* \"#utility.yul\":11376:11414   */\n      tag_138\n      jump\t// in\n    tag_280:\n        /* \"#utility.yul\":11460:11489   */\n      tag_281\n        /* \"#utility.yul\":11478:11488   */\n      dup5\n        /* \"#utility.yul\":11460:11489   */\n      tag_139\n      jump\t// in\n    tag_281:\n        /* \"#utility.yul\":11450:11458   */\n      dup2\n        /* \"#utility.yul\":11446:11490   */\n      add\n        /* \"#utility.yul\":11643:11645   */\n      0x20\n        /* \"#utility.yul\":11631:11641   */\n      dup6\n        /* \"#utility.yul\":11628:11646   */\n      lt\n        /* \"#utility.yul\":11625:11674   */\n      iszero\n      tag_282\n      jumpi\n        /* \"#utility.yul\":11664:11672   */\n      dup2\n        /* \"#utility.yul\":11649:11672   */\n      swap1\n      pop\n        /* \"#utility.yul\":11625:11674   */\n    tag_282:\n        /* \"#utility.yul\":11687:11767   */\n      tag_283\n        /* \"#utility.yul\":11743:11765   */\n      tag_284\n        /* \"#utility.yul\":11761:11764   */\n      dup6\n        /* \"#utility.yul\":11743:11765   */\n      tag_139\n      jump\t// in\n    tag_284:\n        /* \"#utility.yul\":11733:11741   */\n      dup4\n        /* \"#utility.yul\":11729:11766   */\n      add\n        /* \"#utility.yul\":11716:11727   */\n      dup3\n        /* \"#utility.yul\":11687:11767   */\n      tag_148\n      jump\t// in\n    tag_283:\n        /* \"#utility.yul\":11346:11777   */\n      pop\n      pop\n        /* \"#utility.yul\":11331:11777   */\n    tag_279:\n        /* \"#utility.yul\":11241:11784   */\n      pop\n      pop\n      pop\n      jump\t// out\n        /* \"#utility.yul\":11790:11907   */\n    tag_150:\n        /* \"#utility.yul\":11844:11852   */\n      0x00\n        /* \"#utility.yul\":11894:11899   */\n      dup3\n        /* \"#utility.yul\":11888:11892   */\n      dup3\n        /* \"#utility.yul\":11884:11900   */\n      shr\n        /* \"#utility.yul\":11863:11900   */\n      swap1\n      pop\n        /* \"#utility.yul\":11790:11907   */\n      swap3\n      swap2\n      pop\n      pop\n      jump\t// out\n        /* \"#utility.yul\":11913:12082   */\n    tag_151:\n        /* \"#utility.yul\":11957:11963   */\n      0x00\n        /* \"#utility.yul\":11990:12041   */\n      tag_287\n        /* \"#utility.yul\":12038:12039   */\n      0x00\n        /* \"#utility.yul\":12034:12040   */\n      not\n        /* \"#utility.yul\":12026:12031   */\n      dup5\n        /* \"#utility.yul\":12023:12024   */\n      0x08\n        /* \"#utility.yul\":12019:12032   */\n      mul\n        /* \"#utility.yul\":11990:12041   */\n      tag_150\n      jump\t// in\n    tag_287:\n        /* \"#utility.yul\":11986:12042   */\n      not\n        /* \"#utility.yul\":12071:12075   */\n      dup1\n        /* \"#utility.yul\":12065:12069   */\n      dup4\n        /* \"#utility.yul\":12061:12076   */\n      and\n        /* \"#utility.yul\":12051:12076   */\n      swap2\n      pop\n        /* \"#utility.yul\":11964:12082   */\n      pop\n        /* \"#utility.yul\":11913:12082   */\n      swap3\n      swap2\n      pop\n      pop\n      jump\t// out\n        /* \"#utility.yul\":12087:12382   */\n    tag_152:\n        /* \"#utility.yul\":12163:12167   */\n      0x00\n        /* \"#utility.yul\":12309:12338   */\n      tag_289\n        /* \"#utility.yul\":12334:12337   */\n      dup4\n        /* \"#utility.yul\":12328:12332   */\n      dup4\n        /* \"#utility.yul\":12309:12338   */\n      tag_151\n      jump\t// in\n    tag_289:\n        /* \"#utility.yul\":12301:12338   */\n      swap2\n      pop\n        /* \"#utility.yul\":12371:12374   */\n      dup3\n        /* \"#utility.yul\":12368:12369   */\n      0x02\n        /* \"#utility.yul\":12364:12375   */\n      mul\n        /* \"#utility.yul\":12358:12362   */\n      dup3\n        /* \"#utility.yul\":12355:12376   */\n      or\n        /* \"#utility.yul\":12347:12376   */\n      swap1\n      pop\n        /* \"#utility.yul\":12087:12382   */\n      swap3\n      swap2\n      pop\n      pop\n      jump\t// out\n        /* \"#utility.yul\":12387:13782   */\n    tag_77:\n        /* \"#utility.yul\":12504:12541   */\n      tag_291\n        /* \"#utility.yul\":12537:12540   */\n      dup3\n        /* \"#utility.yul\":12504:12541   */\n      tag_134\n      jump\t// in\n    tag_291:\n        /* \"#utility.yul\":12606:12624   */\n      0xffffffffffffffff\n        /* \"#utility.yul\":12598:12604   */\n      dup2\n        /* \"#utility.yul\":12595:12625   */\n      gt\n        /* \"#utility.yul\":12592:12648   */\n      iszero\n      tag_292\n      jumpi\n        /* \"#utility.yul\":12628:12646   */\n      tag_293\n      tag_135\n      jump\t// in\n    tag_293:\n        /* \"#utility.yul\":12592:12648   */\n    tag_292:\n        /* \"#utility.yul\":12672:12710   */\n      tag_294\n        /* \"#utility.yul\":12704:12708   */\n      dup3\n        /* \"#utility.yul\":12698:12709   */\n      sload\n        /* \"#utility.yul\":12672:12710   */\n      tag_137\n      jump\t// in\n    tag_294:\n        /* \"#utility.yul\":12757:12824   */\n      tag_295\n        /* \"#utility.yul\":12817:12823   */\n      dup3\n        /* \"#utility.yul\":12809:12815   */\n      dup3\n        /* \"#utility.yul\":12803:12807   */\n      dup6\n        /* \"#utility.yul\":12757:12824   */\n      tag_149\n      jump\t// in\n    tag_295:\n        /* \"#utility.yul\":12851:12852   */\n      0x00\n        /* \"#utility.yul\":12875:12879   */\n      0x20\n        /* \"#utility.yul\":12862:12879   */\n      swap1\n      pop\n        /* \"#utility.yul\":12907:12909   */\n      0x1f\n        /* \"#utility.yul\":12899:12905   */\n      dup4\n        /* \"#utility.yul\":12896:12910   */\n      gt\n        /* \"#utility.yul\":12924:12925   */\n      0x01\n        /* \"#utility.yul\":12919:13537   */\n      dup2\n      eq\n      tag_297\n      jumpi\n        /* \"#utility.yul\":13581:13582   */\n      0x00\n        /* \"#utility.yul\":13598:13604   */\n      dup5\n        /* \"#utility.yul\":13595:13672   */\n      iszero\n      tag_298\n      jumpi\n        /* \"#utility.yul\":13647:13656   */\n      dup3\n        /* \"#utility.yul\":13642:13645   */\n      dup8\n        /* \"#utility.yul\":13638:13657   */\n      add\n        /* \"#utility.yul\":13632:13658   */\n      mload\n        /* \"#utility.yul\":13623:13658   */\n      swap1\n      pop\n        /* \"#utility.yul\":13595:13672   */\n    tag_298:\n        /* \"#utility.yul\":13698:13765   */\n      tag_299\n        /* \"#utility.yul\":13758:13764   */\n      dup6\n        /* \"#utility.yul\":13751:13756   */\n      dup3\n        /* \"#utility.yul\":13698:13765   */\n      tag_152\n      jump\t// in\n    tag_299:\n        /* \"#utility.yul\":13692:13696   */\n      dup7\n        /* \"#utility.yul\":13685:13766   */\n      sstore\n        /* \"#utility.yul\":13554:13776   */\n      pop\n        /* \"#utility.yul\":12889:13776   */\n      jump(tag_296)\n        /* \"#utility.yul\":12919:13537   */\n    tag_297:\n        /* \"#utility.yul\":12971:12975   */\n      0x1f\n        /* \"#utility.yul\":12967:12976   */\n      not\n        /* \"#utility.yul\":12959:12965   */\n      dup5\n        /* \"#utility.yul\":12955:12977   */\n      and\n        /* \"#utility.yul\":13005:13042   */\n      tag_300\n        /* \"#utility.yul\":13037:13041   */\n      dup7\n        /* \"#utility.yul\":13005:13042   */\n      tag_138\n      jump\t// in\n    tag_300:\n        /* \"#utility.yul\":13064:13065   */\n      0x00\n        /* \"#utility.yul\":13078:13286   */\n    tag_301:\n        /* \"#utility.yul\":13092:13099   */\n      dup3\n        /* \"#utility.yul\":13089:13090   */\n      dup2\n        /* \"#utility.yul\":13086:13100   */\n      lt\n        /* \"#utility.yul\":13078:13286   */\n      iszero\n      tag_303\n      jumpi\n        /* \"#utility.yul\":13171:13180   */\n      dup5\n        /* \"#utility.yul\":13166:13169   */\n      dup10\n        /* \"#utility.yul\":13162:13181   */\n      add\n        /* \"#utility.yul\":13156:13182   */\n      mload\n        /* \"#utility.yul\":13148:13154   */\n      dup3\n        /* \"#utility.yul\":13141:13183   */\n      sstore\n        /* \"#utility.yul\":13222:13223   */\n      0x01\n        /* \"#utility.yul\":13214:13220   */\n      dup3\n        /* \"#utility.yul\":13210:13224   */\n      add\n        /* \"#utility.yul\":13200:13224   */\n      swap2\n      pop\n        /* \"#utility.yul\":13269:13271   */\n      0x20\n        /* \"#utility.yul\":13258:13267   */\n      dup6\n        /* \"#utility.yul\":13254:13272   */\n      add\n        /* \"#utility.yul\":13241:13272   */\n      swap5\n      pop\n        /* \"#utility.yul\":13115:13119   */\n      0x20\n        /* \"#utility.yul\":13112:13113   */\n      dup2\n        /* \"#utility.yul\":13108:13120   */\n      add\n        /* \"#utility.yul\":13103:13120   */\n      swap1\n      pop\n        /* \"#utility.yul\":13078:13286   */\n      jump(tag_301)\n    tag_303:\n        /* \"#utility.yul\":13314:13320   */\n      dup7\n        /* \"#utility.yul\":13305:13312   */\n      dup4\n        /* \"#utility.yul\":13302:13321   */\n      lt\n        /* \"#utility.yul\":13299:13478   */\n      iszero\n      tag_304\n      jumpi\n        /* \"#utility.yul\":13372:13381   */\n      dup5\n        /* \"#utility.yul\":13367:13370   */\n      dup10\n        /* \"#utility.yul\":13363:13382   */\n      add\n        /* \"#utility.yul\":13357:13383   */\n      mload\n        /* \"#utility.yul\":13415:13463   */\n      tag_305\n        /* \"#utility.yul\":13457:13461   */\n      0x1f\n        /* \"#utility.yul\":13449:13455   */\n      dup10\n        /* \"#utility.yul\":13445:13462   */\n      and\n        /* \"#utility.yul\":13434:13443   */\n      dup3\n        /* \"#utility.yul\":13415:13463   */\n      tag_151\n      jump\t// in\n    tag_305:\n        /* \"#utility.yul\":13407:13413   */\n      dup4\n        /* \"#utility.yul\":13400:13464   */\n      sstore\n        /* \"#utility.yul\":13322:13478   */\n      pop\n        /* \"#utility.yul\":13299:13478   */\n    tag_304:\n        /* \"#utility.yul\":13524:13525   */\n      0x01\n        /* \"#utility.yul\":13520:13521   */\n      0x02\n        /* \"#utility.yul\":13512:13518   */\n      dup9\n        /* \"#utility.yul\":13508:13522   */\n      mul\n        /* \"#utility.yul\":13504:13526   */\n      add\n        /* \"#utility.yul\":13498:13502   */\n      dup9\n        /* \"#utility.yul\":13491:13527   */\n      sstore\n        /* \"#utility.yul\":12926:13537   */\n      pop\n      pop\n      pop\n        /* \"#utility.yul\":12889:13776   */\n    tag_296:\n      pop\n        /* \"#utility.yul\":12479:13782   */\n      pop\n      pop\n      pop\n        /* \"#utility.yul\":12387:13782   */\n      pop\n      pop\n      jump\t// out\n        /* \"#utility.yul\":13788:13955   */\n    tag_153:\n        /* \"#utility.yul\":13928:13947   */\n      0x496e73756666696369656e742046756e64000000000000000000000000000000\n        /* \"#utility.yul\":13924:13925   */\n      0x00\n        /* \"#utility.yul\":13916:13922   */\n      dup3\n        /* \"#utility.yul\":13912:13926   */\n      add\n        /* \"#utility.yul\":13905:13948   */\n      mstore\n        /* \"#utility.yul\":13788:13955   */\n      pop\n      jump\t// out\n        /* \"#utility.yul\":13961:14327   */\n    tag_154:\n        /* \"#utility.yul\":14103:14106   */\n      0x00\n        /* \"#utility.yul\":14124:14191   */\n      tag_308\n        /* \"#utility.yul\":14188:14190   */\n      0x11\n        /* \"#utility.yul\":14183:14186   */\n      dup4\n        /* \"#utility.yul\":14124:14191   */\n      tag_127\n      jump\t// in\n    tag_308:\n        /* \"#utility.yul\":14117:14191   */\n      swap2\n      pop\n        /* \"#utility.yul\":14200:14293   */\n      tag_309\n        /* \"#utility.yul\":14289:14292   */\n      dup3\n        /* \"#utility.yul\":14200:14293   */\n      tag_153\n      jump\t// in\n    tag_309:\n        /* \"#utility.yul\":14318:14320   */\n      0x20\n        /* \"#utility.yul\":14313:14316   */\n      dup3\n        /* \"#utility.yul\":14309:14321   */\n      add\n        /* \"#utility.yul\":14302:14321   */\n      swap1\n      pop\n        /* \"#utility.yul\":13961:14327   */\n      swap2\n      swap1\n      pop\n      jump\t// out\n        /* \"#utility.yul\":14333:14752   */\n    tag_84:\n        /* \"#utility.yul\":14499:14503   */\n      0x00\n        /* \"#utility.yul\":14537:14539   */\n      0x20\n        /* \"#utility.yul\":14526:14535   */\n      dup3\n        /* \"#utility.yul\":14522:14540   */\n      add\n        /* \"#utility.yul\":14514:14540   */\n      swap1\n      pop\n        /* \"#utility.yul\":14586:14595   */\n      dup2\n        /* \"#utility.yul\":14580:14584   */\n      dup2\n        /* \"#utility.yul\":14576:14596   */\n      sub\n        /* \"#utility.yul\":14572:14573   */\n      0x00\n        /* \"#utility.yul\":14561:14570   */\n      dup4\n        /* \"#utility.yul\":14557:14574   */\n      add\n        /* \"#utility.yul\":14550:14597   */\n      mstore\n        /* \"#utility.yul\":14614:14745   */\n      tag_311\n        /* \"#utility.yul\":14740:14744   */\n      dup2\n        /* \"#utility.yul\":14614:14745   */\n      tag_154\n      jump\t// in\n    tag_311:\n        /* \"#utility.yul\":14606:14745   */\n      swap1\n      pop\n        /* \"#utility.yul\":14333:14752   */\n      swap2\n      swap1\n      pop\n      jump\t// out\n        /* \"#utility.yul\":14758:14938   */\n    tag_155:\n        /* \"#utility.yul\":14806:14883   */\n      0x4e487b7100000000000000000000000000000000000000000000000000000000\n        /* \"#utility.yul\":14803:14804   */\n      0x00\n        /* \"#utility.yul\":14796:14884   */\n      mstore\n        /* \"#utility.yul\":14903:14907   */\n      0x11\n        /* \"#utility.yul\":14900:14901   */\n      0x04\n        /* \"#utility.yul\":14893:14908   */\n      mstore\n        /* \"#utility.yul\":14927:14931   */\n      0x24\n        /* \"#utility.yul\":14924:14925   */\n      0x00\n        /* \"#utility.yul\":14917:14932   */\n      revert\n        /* \"#utility.yul\":14944:15138   */\n    tag_86:\n        /* \"#utility.yul\":14984:14988   */\n      0x00\n        /* \"#utility.yul\":15004:15024   */\n      tag_314\n        /* \"#utility.yul\":15022:15023   */\n      dup3\n        /* \"#utility.yul\":15004:15024   */\n      tag_113\n      jump\t// in\n    tag_314:\n        /* \"#utility.yul\":14999:15024   */\n      swap2\n      pop\n        /* \"#utility.yul\":15038:15058   */\n      tag_315\n        /* \"#utility.yul\":15056:15057   */\n      dup4\n        /* \"#utility.yul\":15038:15058   */\n      tag_113\n      jump\t// in\n    tag_315:\n        /* \"#utility.yul\":15033:15058   */\n      swap3\n      pop\n        /* \"#utility.yul\":15082:15083   */\n      dup3\n        /* \"#utility.yul\":15079:15080   */\n      dup3\n        /* \"#utility.yul\":15075:15084   */\n      sub\n        /* \"#utility.yul\":15067:15084   */\n      swap1\n      pop\n        /* \"#utility.yul\":15106:15107   */\n      dup2\n        /* \"#utility.yul\":15100:15104   */\n      dup2\n        /* \"#utility.yul\":15097:15108   */\n      gt\n        /* \"#utility.yul\":15094:15131   */\n      iszero\n      tag_316\n      jumpi\n        /* \"#utility.yul\":15111:15129   */\n      tag_317\n      tag_155\n      jump\t// in\n    tag_317:\n        /* \"#utility.yul\":15094:15131   */\n    tag_316:\n        /* \"#utility.yul\":14944:15138   */\n      swap3\n      swap2\n      pop\n      pop\n      jump\t// out\n        /* \"#utility.yul\":15144:15335   */\n    tag_88:\n        /* \"#utility.yul\":15184:15187   */\n      0x00\n        /* \"#utility.yul\":15203:15223   */\n      tag_319\n        /* \"#utility.yul\":15221:15222   */\n      dup3\n        /* \"#utility.yul\":15203:15223   */\n      tag_113\n      jump\t// in\n    tag_319:\n        /* \"#utility.yul\":15198:15223   */\n      swap2\n      pop\n        /* \"#utility.yul\":15237:15257   */\n      tag_320\n        /* \"#utility.yul\":15255:15256   */\n      dup4\n        /* \"#utility.yul\":15237:15257   */\n      tag_113\n      jump\t// in\n    tag_320:\n        /* \"#utility.yul\":15232:15257   */\n      swap3\n      pop\n        /* \"#utility.yul\":15280:15281   */\n      dup3\n        /* \"#utility.yul\":15277:15278   */\n      dup3\n        /* \"#utility.yul\":15273:15282   */\n      add\n        /* \"#utility.yul\":15266:15282   */\n      swap1\n      pop\n        /* \"#utility.yul\":15301:15304   */\n      dup1\n        /* \"#utility.yul\":15298:15299   */\n      dup3\n        /* \"#utility.yul\":15295:15305   */\n      gt\n        /* \"#utility.yul\":15292:15328   */\n      iszero\n      tag_321\n      jumpi\n        /* \"#utility.yul\":15308:15326   */\n      tag_322\n      tag_155\n      jump\t// in\n    tag_322:\n        /* \"#utility.yul\":15292:15328   */\n    tag_321:\n        /* \"#utility.yul\":15144:15335   */\n      swap3\n      swap2\n      pop\n      pop\n      jump\t// out\n        /* \"#utility.yul\":15341:15508   */\n    tag_156:\n        /* \"#utility.yul\":15481:15500   */\n      0x416d6f756e7420756e617070726f766564000000000000000000000000000000\n        /* \"#utility.yul\":15477:15478   */\n      0x00\n        /* \"#utility.yul\":15469:15475   */\n      dup3\n        /* \"#utility.yul\":15465:15479   */\n      add\n        /* \"#utility.yul\":15458:15501   */\n      mstore\n        /* \"#utility.yul\":15341:15508   */\n      pop\n      jump\t// out\n        /* \"#utility.yul\":15514:15880   */\n    tag_157:\n        /* \"#utility.yul\":15656:15659   */\n      0x00\n        /* \"#utility.yul\":15677:15744   */\n      tag_325\n        /* \"#utility.yul\":15741:15743   */\n      0x11\n        /* \"#utility.yul\":15736:15739   */\n      dup4\n        /* \"#utility.yul\":15677:15744   */\n      tag_127\n      jump\t// in\n    tag_325:\n        /* \"#utility.yul\":15670:15744   */\n      swap2\n      pop\n        /* \"#utility.yul\":15753:15846   */\n      tag_326\n        /* \"#utility.yul\":15842:15845   */\n      dup3\n        /* \"#utility.yul\":15753:15846   */\n      tag_156\n      jump\t// in\n    tag_326:\n        /* \"#utility.yul\":15871:15873   */\n      0x20\n        /* \"#utility.yul\":15866:15869   */\n      dup3\n        /* \"#utility.yul\":15862:15874   */\n      add\n        /* \"#utility.yul\":15855:15874   */\n      swap1\n      pop\n        /* \"#utility.yul\":15514:15880   */\n      swap2\n      swap1\n      pop\n      jump\t// out\n        /* \"#utility.yul\":15886:16305   */\n    tag_92:\n        /* \"#utility.yul\":16052:16056   */\n      0x00\n        /* \"#utility.yul\":16090:16092   */\n      0x20\n        /* \"#utility.yul\":16079:16088   */\n      dup3\n        /* \"#utility.yul\":16075:16093   */\n      add\n        /* \"#utility.yul\":16067:16093   */\n      swap1\n      pop\n        /* \"#utility.yul\":16139:16148   */\n      dup2\n        /* \"#utility.yul\":16133:16137   */\n      dup2\n        /* \"#utility.yul\":16129:16149   */\n      sub\n        /* \"#utility.yul\":16125:16126   */\n      0x00\n        /* \"#utility.yul\":16114:16123   */\n      dup4\n        /* \"#utility.yul\":16110:16127   */\n      add\n        /* \"#utility.yul\":16103:16150   */\n      mstore\n        /* \"#utility.yul\":16167:16298   */\n      tag_328\n        /* \"#utility.yul\":16293:16297   */\n      dup2\n        /* \"#utility.yul\":16167:16298   */\n      tag_157\n      jump\t// in\n    tag_328:\n        /* \"#utility.yul\":16159:16298   */\n      swap1\n      pop\n        /* \"#utility.yul\":15886:16305   */\n      swap2\n      swap1\n      pop\n      jump\t// out\n        /* \"#utility.yul\":16311:16433   */\n    tag_158:\n        /* \"#utility.yul\":16384:16408   */\n      tag_330\n        /* \"#utility.yul\":16402:16407   */\n      dup2\n        /* \"#utility.yul\":16384:16408   */\n      tag_119\n      jump\t// in\n    tag_330:\n        /* \"#utility.yul\":16377:16382   */\n      dup2\n        /* \"#utility.yul\":16374:16409   */\n      eq\n        /* \"#utility.yul\":16364:16427   */\n      tag_331\n      jumpi\n        /* \"#utility.yul\":16423:16424   */\n      0x00\n        /* \"#utility.yul\":16420:16421   */\n      dup1\n        /* \"#utility.yul\":16413:16425   */\n      revert\n        /* \"#utility.yul\":16364:16427   */\n    tag_331:\n        /* \"#utility.yul\":16311:16433   */\n      pop\n      jump\t// out\n        /* \"#utility.yul\":16439:16582   */\n    tag_159:\n        /* \"#utility.yul\":16496:16501   */\n      0x00\n        /* \"#utility.yul\":16527:16533   */\n      dup2\n        /* \"#utility.yul\":16521:16534   */\n      mload\n        /* \"#utility.yul\":16512:16534   */\n      swap1\n      pop\n        /* \"#utility.yul\":16543:16576   */\n      tag_333\n        /* \"#utility.yul\":16570:16575   */\n      dup2\n        /* \"#utility.yul\":16543:16576   */\n      tag_158\n      jump\t// in\n    tag_333:\n        /* \"#utility.yul\":16439:16582   */\n      swap3\n      swap2\n      pop\n      pop\n      jump\t// out\n        /* \"#utility.yul\":16588:16939   */\n    tag_100:\n        /* \"#utility.yul\":16658:16664   */\n      0x00\n        /* \"#utility.yul\":16707:16709   */\n      0x20\n        /* \"#utility.yul\":16695:16704   */\n      dup3\n        /* \"#utility.yul\":16686:16693   */\n      dup5\n        /* \"#utility.yul\":16682:16705   */\n      sub\n        /* \"#utility.yul\":16678:16710   */\n      slt\n        /* \"#utility.yul\":16675:16794   */\n      iszero\n      tag_335\n      jumpi\n        /* \"#utility.yul\":16713:16792   */\n      tag_336\n      tag_107\n      jump\t// in\n    tag_336:\n        /* \"#utility.yul\":16675:16794   */\n    tag_335:\n        /* \"#utility.yul\":16833:16834   */\n      0x00\n        /* \"#utility.yul\":16858:16922   */\n      tag_337\n        /* \"#utility.yul\":16914:16921   */\n      dup5\n        /* \"#utility.yul\":16905:16911   */\n      dup3\n        /* \"#utility.yul\":16894:16903   */\n      dup6\n        /* \"#utility.yul\":16890:16912   */\n      add\n        /* \"#utility.yul\":16858:16922   */\n      tag_159\n      jump\t// in\n    tag_337:\n        /* \"#utility.yul\":16848:16922   */\n      swap2\n      pop\n        /* \"#utility.yul\":16804:16932   */\n      pop\n        /* \"#utility.yul\":16588:16939   */\n      swap3\n      swap2\n      pop\n      pop\n      jump\t// out\n        /* \"#utility.yul\":16945:17109   */\n    tag_160:\n        /* \"#utility.yul\":17085:17101   */\n      0x4e6f7420636f6d70617469626c65000000000000000000000000000000000000\n        /* \"#utility.yul\":17081:17082   */\n      0x00\n        /* \"#utility.yul\":17073:17079   */\n      dup3\n        /* \"#utility.yul\":17069:17083   */\n      add\n        /* \"#utility.yul\":17062:17102   */\n      mstore\n        /* \"#utility.yul\":16945:17109   */\n      pop\n      jump\t// out\n        /* \"#utility.yul\":17115:17481   */\n    tag_161:\n        /* \"#utility.yul\":17257:17260   */\n      0x00\n        /* \"#utility.yul\":17278:17345   */\n      tag_340\n        /* \"#utility.yul\":17342:17344   */\n      0x0e\n        /* \"#utility.yul\":17337:17340   */\n      dup4\n        /* \"#utility.yul\":17278:17345   */\n      tag_127\n      jump\t// in\n    tag_340:\n        /* \"#utility.yul\":17271:17345   */\n      swap2\n      pop\n        /* \"#utility.yul\":17354:17447   */\n      tag_341\n        /* \"#utility.yul\":17443:17446   */\n      dup3\n        /* \"#utility.yul\":17354:17447   */\n      tag_160\n      jump\t// in\n    tag_341:\n        /* \"#utility.yul\":17472:17474   */\n      0x20\n        /* \"#utility.yul\":17467:17470   */\n      dup3\n        /* \"#utility.yul\":17463:17475   */\n      add\n        /* \"#utility.yul\":17456:17475   */\n      swap1\n      pop\n        /* \"#utility.yul\":17115:17481   */\n      swap2\n      swap1\n      pop\n      jump\t// out\n        /* \"#utility.yul\":17487:17906   */\n    tag_103:\n        /* \"#utility.yul\":17653:17657   */\n      0x00\n        /* \"#utility.yul\":17691:17693   */\n      0x20\n        /* \"#utility.yul\":17680:17689   */\n      dup3\n        /* \"#utility.yul\":17676:17694   */\n      add\n        /* \"#utility.yul\":17668:17694   */\n      swap1\n      pop\n        /* \"#utility.yul\":17740:17749   */\n      dup2\n        /* \"#utility.yul\":17734:17738   */\n      dup2\n        /* \"#utility.yul\":17730:17750   */\n      sub\n        /* \"#utility.yul\":17726:17727   */\n      0x00\n        /* \"#utility.yul\":17715:17724   */\n      dup4\n        /* \"#utility.yul\":17711:17728   */\n      add\n        /* \"#utility.yul\":17704:17751   */\n      mstore\n        /* \"#utility.yul\":17768:17899   */\n      tag_343\n        /* \"#utility.yul\":17894:17898   */\n      dup2\n        /* \"#utility.yul\":17768:17899   */\n      tag_161\n      jump\t// in\n    tag_343:\n        /* \"#utility.yul\":17760:17899   */\n      swap1\n      pop\n        /* \"#utility.yul\":17487:17906   */\n      swap2\n      swap1\n      pop\n      jump\t// out\n\n    auxdata: 0xa26469706673582212209470f5d3f90cc30e3de5645fcda46f4ddc927c4be11433ad39ace540bb35c59b64736f6c63430008100033\n}\n",
				"bytecode": {
					"linkReferences": {},
					"object": "608060405234801561001057600080fd5b506114be806100206000396000f3fe608060405234801561001057600080fd5b50600436106100a95760003560e01c806362b583a21161007157806362b583a21461015457806370a08231146101705780638129fc1c146101a05780638da5cb5b146101aa578063a9059cbb146101c8578063c0d84ce5146101e4576100a9565b8063095ea7b3146100ae578063158ef93e146100ca5780633e5beab9146100e857806352d1902d146101185780635a95ff1914610136575b600080fd5b6100c860048036038101906100c39190610bb7565b610200565b005b6100d26102d0565b6040516100df9190610c12565b60405180910390f35b61010260048036038101906100fd9190610c2d565b6102e3565b60405161010f9190610c69565b60405180910390f35b610120610369565b60405161012d9190610c9d565b60405180910390f35b61013e610394565b60405161014b9190610d48565b60405180910390f35b61016e60048036038101906101699190610c2d565b61041e565b005b61018a60048036038101906101859190610c2d565b6104ba565b6040516101979190610c69565b60405180910390f35b6101a8610503565b005b6101b2610669565b6040516101bf9190610d79565b60405180910390f35b6101e260048036038101906101dd9190610bb7565b61068f565b005b6101fe60048036038101906101f99190610d94565b6107c1565b005b8061020a336104ba565b101561024b576040517f08c379a000000000000000000000000000000000000000000000000000000000815260040161024290610e44565b60405180910390fd5b80600560003373ffffffffffffffffffffffffffffffffffffffff1673ffffffffffffffffffffffffffffffffffffffff16815260200190815260200160002060008473ffffffffffffffffffffffffffffffffffffffff1673ffffffffffffffffffffffffffffffffffffffff168152602001908152602001600020819055505050565b600360009054906101000a900460ff1681565b6000600560003373ffffffffffffffffffffffffffffffffffffffff1673ffffffffffffffffffffffffffffffffffffffff16815260200190815260200160002060008373ffffffffffffffffffffffffffffffffffffffff1673ffffffffffffffffffffffffffffffffffffffff168152602001908152602001600020549050919050565b60007fc5f16f0fcc639fa48a6947836d9850f504798523bf8c9a3a87d5876cf622bcf760001b905090565b60606040516024016040516020818303038152906040527f8129fc1c000000000000000000000000000000000000000000000000000000007bffffffffffffffffffffffffffffffffffffffffffffffffffffffff19166020820180517bffffffffffffffffffffffffffffffffffffffffffffffffffffffff8381831617835250505050905090565b600360019054906101000a900473ffffffffffffffffffffffffffffffffffffffff1673ffffffffffffffffffffffffffffffffffffffff163373ffffffffffffffffffffffffffffffffffffffff16146104ae576040517f08c379a00000000000000000000000000000000000000000000000000000000081526004016104a590610eb0565b60405180910390fd5b6104b7816109ca565b50565b6000600460008373ffffffffffffffffffffffffffffffffffffffff1673ffffffffffffffffffffffffffffffffffffffff168152602001908152602001600020549050919050565b600360009054906101000a900460ff1615610553576040517f08c379a000000000000000000000000000000000000000000000000000000000815260040161054a90610f1c565b60405180910390fd5b6001600360006101000a81548160ff0219169083151502179055506969e10de76676d08000006000819055506040518060400160405280600a81526020017f4d6f72656e696b656a6900000000000000000000000000000000000000000000815250600190816105c39190611182565b506040518060400160405280600381526020017f4d4b4a0000000000000000000000000000000000000000000000000000000000815250600290816106089190611182565b5061062673aa5ac6134633183c81436499fb38748d128e039b610ac3565b33600360016101000a81548173ffffffffffffffffffffffffffffffffffffffff021916908373ffffffffffffffffffffffffffffffffffffffff160217905550565b600360019054906101000a900473ffffffffffffffffffffffffffffffffffffffff1681565b80600460003373ffffffffffffffffffffffffffffffffffffffff1673ffffffffffffffffffffffffffffffffffffffff168152602001908152602001600020541015610711576040517f08c379a0000000000000000000000000000000000000000000000000000000008152600401610708906112a0565b60405180910390fd5b80600460003373ffffffffffffffffffffffffffffffffffffffff1673ffffffffffffffffffffffffffffffffffffffff168152602001908152602001600020600082825461076091906112ef565b9250508190555080600460008473ffffffffffffffffffffffffffffffffffffffff1673ffffffffffffffffffffffffffffffffffffffff16815260200190815260200160002060008282546107b69190611323565b925050819055505050565b6000600560008573ffffffffffffffffffffffffffffffffffffffff1673ffffffffffffffffffffffffffffffffffffffff16815260200190815260200160002060008473ffffffffffffffffffffffffffffffffffffffff1673ffffffffffffffffffffffffffffffffffffffff16815260200190815260200160002054905081811015610885576040517f08c379a000000000000000000000000000000000000000000000000000000000815260040161087c906113a3565b60405180910390fd5b81600560008673ffffffffffffffffffffffffffffffffffffffff1673ffffffffffffffffffffffffffffffffffffffff16815260200190815260200160002060008573ffffffffffffffffffffffffffffffffffffffff1673ffffffffffffffffffffffffffffffffffffffff168152602001908152602001600020600082825461091191906112ef565b9250508190555081600460008673ffffffffffffffffffffffffffffffffffffffff1673ffffffffffffffffffffffffffffffffffffffff168152602001908152602001600020600082825461096791906112ef565b9250508190555081600460008573ffffffffffffffffffffffffffffffffffffffff1673ffffffffffffffffffffffffffffffffffffffff16815260200190815260200160002060008282546109bd9190611323565b9250508190555050505050565b8073ffffffffffffffffffffffffffffffffffffffff166352d1902d6040518163ffffffff1660e01b8152600401602060405180830381865afa158015610a15573d6000803e3d6000fd5b505050506040513d601f19601f82011682018060405250810190610a3991906113ef565b7fc5f16f0fcc639fa48a6947836d9850f504798523bf8c9a3a87d5876cf622bcf760001b14610a9d576040517f08c379a0000000000000000000000000000000000000000000000000000000008152600401610a9490611468565b60405180910390fd5b807fc5f16f0fcc639fa48a6947836d9850f504798523bf8c9a3a87d5876cf622bcf75550565b600054600460008373ffffffffffffffffffffffffffffffffffffffff1673ffffffffffffffffffffffffffffffffffffffff1681526020019081526020016000206000828254610b149190611323565b9250508190555050565b600080fd5b600073ffffffffffffffffffffffffffffffffffffffff82169050919050565b6000610b4e82610b23565b9050919050565b610b5e81610b43565b8114610b6957600080fd5b50565b600081359050610b7b81610b55565b92915050565b6000819050919050565b610b9481610b81565b8114610b9f57600080fd5b50565b600081359050610bb181610b8b565b92915050565b60008060408385031215610bce57610bcd610b1e565b5b6000610bdc85828601610b6c565b9250506020610bed85828601610ba2565b9150509250929050565b60008115159050919050565b610c0c81610bf7565b82525050565b6000602082019050610c276000830184610c03565b92915050565b600060208284031215610c4357610c42610b1e565b5b6000610c5184828501610b6c565b91505092915050565b610c6381610b81565b82525050565b6000602082019050610c7e6000830184610c5a565b92915050565b6000819050919050565b610c9781610c84565b82525050565b6000602082019050610cb26000830184610c8e565b92915050565b600081519050919050565b600082825260208201905092915050565b60005b83811015610cf2578082015181840152602081019050610cd7565b60008484015250505050565b6000601f19601f8301169050919050565b6000610d1a82610cb8565b610d248185610cc3565b9350610d34818560208601610cd4565b610d3d81610cfe565b840191505092915050565b60006020820190508181036000830152610d628184610d0f565b905092915050565b610d7381610b43565b82525050565b6000602082019050610d8e6000830184610d6a565b92915050565b600080600060608486031215610dad57610dac610b1e565b5b6000610dbb86828701610b6c565b9350506020610dcc86828701610b6c565b9250506040610ddd86828701610ba2565b9150509250925092565b600082825260208201905092915050565b7f556e61626c6520746f20617070726f7665000000000000000000000000000000600082015250565b6000610e2e601183610de7565b9150610e3982610df8565b602082019050919050565b60006020820190508181036000830152610e5d81610e21565b9050919050565b7f596f7520617265206e6f7420616c6c6f77656420746f20757067726164650000600082015250565b6000610e9a601e83610de7565b9150610ea582610e64565b602082019050919050565b60006020820190508181036000830152610ec981610e8d565b9050919050565b7f436f6e747261637420616c726561647920496e697469616c697a656400000000600082015250565b6000610f06601c83610de7565b9150610f1182610ed0565b602082019050919050565b60006020820190508181036000830152610f3581610ef9565b9050919050565b600081519050919050565b7f4e487b7100000000000000000000000000000000000000000000000000000000600052604160045260246000fd5b7f4e487b7100000000000000000000000000000000000000000000000000000000600052602260045260246000fd5b60006002820490506001821680610fbd57607f821691505b602082108103610fd057610fcf610f76565b5b50919050565b60008190508160005260206000209050919050565b60006020601f8301049050919050565b600082821b905092915050565b6000600883026110387fffffffffffffffffffffffffffffffffffffffffffffffffffffffffffffffff82610ffb565b6110428683610ffb565b95508019841693508086168417925050509392505050565b6000819050919050565b600061107f61107a61107584610b81565b61105a565b610b81565b9050919050565b6000819050919050565b61109983611064565b6110ad6110a582611086565b848454611008565b825550505050565b600090565b6110c26110b5565b6110cd818484611090565b505050565b5b818110156110f1576110e66000826110ba565b6001810190506110d3565b5050565b601f8211156111365761110781610fd6565b61111084610feb565b8101602085101561111f578190505b61113361112b85610feb565b8301826110d2565b50505b505050565b600082821c905092915050565b60006111596000198460080261113b565b1980831691505092915050565b60006111728383611148565b9150826002028217905092915050565b61118b82610f3c565b67ffffffffffffffff8111156111a4576111a3610f47565b5b6111ae8254610fa5565b6111b98282856110f5565b600060209050601f8311600181146111ec57600084156111da578287015190505b6111e48582611166565b86555061124c565b601f1984166111fa86610fd6565b60005b82811015611222578489015182556001820191506020850194506020810190506111fd565b8683101561123f578489015161123b601f891682611148565b8355505b6001600288020188555050505b505050505050565b7f496e73756666696369656e742046756e64000000000000000000000000000000600082015250565b600061128a601183610de7565b915061129582611254565b602082019050919050565b600060208201905081810360008301526112b98161127d565b9050919050565b7f4e487b7100000000000000000000000000000000000000000000000000000000600052601160045260246000fd5b60006112fa82610b81565b915061130583610b81565b925082820390508181111561131d5761131c6112c0565b5b92915050565b600061132e82610b81565b915061133983610b81565b9250828201905080821115611351576113506112c0565b5b92915050565b7f416d6f756e7420756e617070726f766564000000000000000000000000000000600082015250565b600061138d601183610de7565b915061139882611357565b602082019050919050565b600060208201905081810360008301526113bc81611380565b9050919050565b6113cc81610c84565b81146113d757600080fd5b50565b6000815190506113e9816113c3565b92915050565b60006020828403121561140557611404610b1e565b5b6000611413848285016113da565b91505092915050565b7f4e6f7420636f6d70617469626c65000000000000000000000000000000000000600082015250565b6000611452600e83610de7565b915061145d8261141c565b602082019050919050565b6000602082019050818103600083015261148181611445565b905091905056fea26469706673582212209470f5d3f90cc30e3de5645fcda46f4ddc927c4be11433ad39ace540bb35c59b64736f6c63430008100033",
					"opcodes": "PUSH1 0x80 PUSH1 0x40 MSTORE CALLVALUE DUP1 ISZERO PUSH2 0x10 JUMPI PUSH1 0x0 DUP1 REVERT JUMPDEST POP PUSH2 0x14BE DUP1 PUSH2 0x20 PUSH1 0x0 CODECOPY PUSH1 0x0 RETURN INVALID PUSH1 0x80 PUSH1 0x40 MSTORE CALLVALUE DUP1 ISZERO PUSH2 0x10 JUMPI PUSH1 0x0 DUP1 REVERT JUMPDEST POP PUSH1 0x4 CALLDATASIZE LT PUSH2 0xA9 JUMPI PUSH1 0x0 CALLDATALOAD PUSH1 0xE0 SHR DUP1 PUSH4 0x62B583A2 GT PUSH2 0x71 JUMPI DUP1 PUSH4 0x62B583A2 EQ PUSH2 0x154 JUMPI DUP1 PUSH4 0x70A08231 EQ PUSH2 0x170 JUMPI DUP1 PUSH4 0x8129FC1C EQ PUSH2 0x1A0 JUMPI DUP1 PUSH4 0x8DA5CB5B EQ PUSH2 0x1AA JUMPI DUP1 PUSH4 0xA9059CBB EQ PUSH2 0x1C8 JUMPI DUP1 PUSH4 0xC0D84CE5 EQ PUSH2 0x1E4 JUMPI PUSH2 0xA9 JUMP JUMPDEST DUP1 PUSH4 0x95EA7B3 EQ PUSH2 0xAE JUMPI DUP1 PUSH4 0x158EF93E EQ PUSH2 0xCA JUMPI DUP1 PUSH4 0x3E5BEAB9 EQ PUSH2 0xE8 JUMPI DUP1 PUSH4 0x52D1902D EQ PUSH2 0x118 JUMPI DUP1 PUSH4 0x5A95FF19 EQ PUSH2 0x136 JUMPI JUMPDEST PUSH1 0x0 DUP1 REVERT JUMPDEST PUSH2 0xC8 PUSH1 0x4 DUP1 CALLDATASIZE SUB DUP2 ADD SWAP1 PUSH2 0xC3 SWAP2 SWAP1 PUSH2 0xBB7 JUMP JUMPDEST PUSH2 0x200 JUMP JUMPDEST STOP JUMPDEST PUSH2 0xD2 PUSH2 0x2D0 JUMP JUMPDEST PUSH1 0x40 MLOAD PUSH2 0xDF SWAP2 SWAP1 PUSH2 0xC12 JUMP JUMPDEST PUSH1 0x40 MLOAD DUP1 SWAP2 SUB SWAP1 RETURN JUMPDEST PUSH2 0x102 PUSH1 0x4 DUP1 CALLDATASIZE SUB DUP2 ADD SWAP1 PUSH2 0xFD SWAP2 SWAP1 PUSH2 0xC2D JUMP JUMPDEST PUSH2 0x2E3 JUMP JUMPDEST PUSH1 0x40 MLOAD PUSH2 0x10F SWAP2 SWAP1 PUSH2 0xC69 JUMP JUMPDEST PUSH1 0x40 MLOAD DUP1 SWAP2 SUB SWAP1 RETURN JUMPDEST PUSH2 0x120 PUSH2 0x369 JUMP JUMPDEST PUSH1 0x40 MLOAD PUSH2 0x12D SWAP2 SWAP1 PUSH2 0xC9D JUMP JUMPDEST PUSH1 0x40 MLOAD DUP1 SWAP2 SUB SWAP1 RETURN JUMPDEST PUSH2 0x13E PUSH2 0x394 JUMP JUMPDEST PUSH1 0x40 MLOAD PUSH2 0x14B SWAP2 SWAP1 PUSH2 0xD48 JUMP JUMPDEST PUSH1 0x40 MLOAD DUP1 SWAP2 SUB SWAP1 RETURN JUMPDEST PUSH2 0x16E PUSH1 0x4 DUP1 CALLDATASIZE SUB DUP2 ADD SWAP1 PUSH2 0x169 SWAP2 SWAP1 PUSH2 0xC2D JUMP JUMPDEST PUSH2 0x41E JUMP JUMPDEST STOP JUMPDEST PUSH2 0x18A PUSH1 0x4 DUP1 CALLDATASIZE SUB DUP2 ADD SWAP1 PUSH2 0x185 SWAP2 SWAP1 PUSH2 0xC2D JUMP JUMPDEST PUSH2 0x4BA JUMP JUMPDEST PUSH1 0x40 MLOAD PUSH2 0x197 SWAP2 SWAP1 PUSH2 0xC69 JUMP JUMPDEST PUSH1 0x40 MLOAD DUP1 SWAP2 SUB SWAP1 RETURN JUMPDEST PUSH2 0x1A8 PUSH2 0x503 JUMP JUMPDEST STOP JUMPDEST PUSH2 0x1B2 PUSH2 0x669 JUMP JUMPDEST PUSH1 0x40 MLOAD PUSH2 0x1BF SWAP2 SWAP1 PUSH2 0xD79 JUMP JUMPDEST PUSH1 0x40 MLOAD DUP1 SWAP2 SUB SWAP1 RETURN JUMPDEST PUSH2 0x1E2 PUSH1 0x4 DUP1 CALLDATASIZE SUB DUP2 ADD SWAP1 PUSH2 0x1DD SWAP2 SWAP1 PUSH2 0xBB7 JUMP JUMPDEST PUSH2 0x68F JUMP JUMPDEST STOP JUMPDEST PUSH2 0x1FE PUSH1 0x4 DUP1 CALLDATASIZE SUB DUP2 ADD SWAP1 PUSH2 0x1F9 SWAP2 SWAP1 PUSH2 0xD94 JUMP JUMPDEST PUSH2 0x7C1 JUMP JUMPDEST STOP JUMPDEST DUP1 PUSH2 0x20A CALLER PUSH2 0x4BA JUMP JUMPDEST LT ISZERO PUSH2 0x24B JUMPI PUSH1 0x40 MLOAD PUSH32 0x8C379A000000000000000000000000000000000000000000000000000000000 DUP2 MSTORE PUSH1 0x4 ADD PUSH2 0x242 SWAP1 PUSH2 0xE44 JUMP JUMPDEST PUSH1 0x40 MLOAD DUP1 SWAP2 SUB SWAP1 REVERT JUMPDEST DUP1 PUSH1 0x5 PUSH1 0x0 CALLER PUSH20 0xFFFFFFFFFFFFFFFFFFFFFFFFFFFFFFFFFFFFFFFF AND PUSH20 0xFFFFFFFFFFFFFFFFFFFFFFFFFFFFFFFFFFFFFFFF AND DUP2 MSTORE PUSH1 0x20 ADD SWAP1 DUP2 MSTORE PUSH1 0x20 ADD PUSH1 0x0 KECCAK256 PUSH1 0x0 DUP5 PUSH20 0xFFFFFFFFFFFFFFFFFFFFFFFFFFFFFFFFFFFFFFFF AND PUSH20 0xFFFFFFFFFFFFFFFFFFFFFFFFFFFFFFFFFFFFFFFF AND DUP2 MSTORE PUSH1 0x20 ADD SWAP1 DUP2 MSTORE PUSH1 0x20 ADD PUSH1 0x0 KECCAK256 DUP2 SWAP1 SSTORE POP POP POP JUMP JUMPDEST PUSH1 0x3 PUSH1 0x0 SWAP1 SLOAD SWAP1 PUSH2 0x100 EXP SWAP1 DIV PUSH1 0xFF AND DUP2 JUMP JUMPDEST PUSH1 0x0 PUSH1 0x5 PUSH1 0x0 CALLER PUSH20 0xFFFFFFFFFFFFFFFFFFFFFFFFFFFFFFFFFFFFFFFF AND PUSH20 0xFFFFFFFFFFFFFFFFFFFFFFFFFFFFFFFFFFFFFFFF AND DUP2 MSTORE PUSH1 0x20 ADD SWAP1 DUP2 MSTORE PUSH1 0x20 ADD PUSH1 0x0 KECCAK256 PUSH1 0x0 DUP4 PUSH20 0xFFFFFFFFFFFFFFFFFFFFFFFFFFFFFFFFFFFFFFFF AND PUSH20 0xFFFFFFFFFFFFFFFFFFFFFFFFFFFFFFFFFFFFFFFF AND DUP2 MSTORE PUSH1 0x20 ADD SWAP1 DUP2 MSTORE PUSH1 0x20 ADD PUSH1 0x0 KECCAK256 SLOAD SWAP1 POP SWAP2 SWAP1 POP JUMP JUMPDEST PUSH1 0x0 PUSH32 0xC5F16F0FCC639FA48A6947836D9850F504798523BF8C9A3A87D5876CF622BCF7 PUSH1 0x0 SHL SWAP1 POP SWAP1 JUMP JUMPDEST PUSH1 0x60 PUSH1 0x40 MLOAD PUSH1 0x24 ADD PUSH1 0x40 MLOAD PUSH1 0x20 DUP2 DUP4 SUB SUB DUP2 MSTORE SWAP1 PUSH1 0x40 MSTORE PUSH32 0x8129FC1C00000000000000000000000000000000000000000000000000000000 PUSH28 0xFFFFFFFFFFFFFFFFFFFFFFFFFFFFFFFFFFFFFFFFFFFFFFFFFFFFFFFF NOT AND PUSH1 0x20 DUP3 ADD DUP1 MLOAD PUSH28 0xFFFFFFFFFFFFFFFFFFFFFFFFFFFFFFFFFFFFFFFFFFFFFFFFFFFFFFFF DUP4 DUP2 DUP4 AND OR DUP4 MSTORE POP POP POP POP SWAP1 POP SWAP1 JUMP JUMPDEST PUSH1 0x3 PUSH1 0x1 SWAP1 SLOAD SWAP1 PUSH2 0x100 EXP SWAP1 DIV PUSH20 0xFFFFFFFFFFFFFFFFFFFFFFFFFFFFFFFFFFFFFFFF AND PUSH20 0xFFFFFFFFFFFFFFFFFFFFFFFFFFFFFFFFFFFFFFFF AND CALLER PUSH20 0xFFFFFFFFFFFFFFFFFFFFFFFFFFFFFFFFFFFFFFFF AND EQ PUSH2 0x4AE JUMPI PUSH1 0x40 MLOAD PUSH32 0x8C379A000000000000000000000000000000000000000000000000000000000 DUP2 MSTORE PUSH1 0x4 ADD PUSH2 0x4A5 SWAP1 PUSH2 0xEB0 JUMP JUMPDEST PUSH1 0x40 MLOAD DUP1 SWAP2 SUB SWAP1 REVERT JUMPDEST PUSH2 0x4B7 DUP2 PUSH2 0x9CA JUMP JUMPDEST POP JUMP JUMPDEST PUSH1 0x0 PUSH1 0x4 PUSH1 0x0 DUP4 PUSH20 0xFFFFFFFFFFFFFFFFFFFFFFFFFFFFFFFFFFFFFFFF AND PUSH20 0xFFFFFFFFFFFFFFFFFFFFFFFFFFFFFFFFFFFFFFFF AND DUP2 MSTORE PUSH1 0x20 ADD SWAP1 DUP2 MSTORE PUSH1 0x20 ADD PUSH1 0x0 KECCAK256 SLOAD SWAP1 POP SWAP2 SWAP1 POP JUMP JUMPDEST PUSH1 0x3 PUSH1 0x0 SWAP1 SLOAD SWAP1 PUSH2 0x100 EXP SWAP1 DIV PUSH1 0xFF AND ISZERO PUSH2 0x553 JUMPI PUSH1 0x40 MLOAD PUSH32 0x8C379A000000000000000000000000000000000000000000000000000000000 DUP2 MSTORE PUSH1 0x4 ADD PUSH2 0x54A SWAP1 PUSH2 0xF1C JUMP JUMPDEST PUSH1 0x40 MLOAD DUP1 SWAP2 SUB SWAP1 REVERT JUMPDEST PUSH1 0x1 PUSH1 0x3 PUSH1 0x0 PUSH2 0x100 EXP DUP2 SLOAD DUP2 PUSH1 0xFF MUL NOT AND SWAP1 DUP4 ISZERO ISZERO MUL OR SWAP1 SSTORE POP PUSH10 0x69E10DE76676D0800000 PUSH1 0x0 DUP2 SWAP1 SSTORE POP PUSH1 0x40 MLOAD DUP1 PUSH1 0x40 ADD PUSH1 0x40 MSTORE DUP1 PUSH1 0xA DUP2 MSTORE PUSH1 0x20 ADD PUSH32 0x4D6F72656E696B656A6900000000000000000000000000000000000000000000 DUP2 MSTORE POP PUSH1 0x1 SWAP1 DUP2 PUSH2 0x5C3 SWAP2 SWAP1 PUSH2 0x1182 JUMP JUMPDEST POP PUSH1 0x40 MLOAD DUP1 PUSH1 0x40 ADD PUSH1 0x40 MSTORE DUP1 PUSH1 0x3 DUP2 MSTORE PUSH1 0x20 ADD PUSH32 0x4D4B4A0000000000000000000000000000000000000000000000000000000000 DUP2 MSTORE POP PUSH1 0x2 SWAP1 DUP2 PUSH2 0x608 SWAP2 SWAP1 PUSH2 0x1182 JUMP JUMPDEST POP PUSH2 0x626 PUSH20 0xAA5AC6134633183C81436499FB38748D128E039B PUSH2 0xAC3 JUMP JUMPDEST CALLER PUSH1 0x3 PUSH1 0x1 PUSH2 0x100 EXP DUP2 SLOAD DUP2 PUSH20 0xFFFFFFFFFFFFFFFFFFFFFFFFFFFFFFFFFFFFFFFF MUL NOT AND SWAP1 DUP4 PUSH20 0xFFFFFFFFFFFFFFFFFFFFFFFFFFFFFFFFFFFFFFFF AND MUL OR SWAP1 SSTORE POP JUMP JUMPDEST PUSH1 0x3 PUSH1 0x1 SWAP1 SLOAD SWAP1 PUSH2 0x100 EXP SWAP1 DIV PUSH20 0xFFFFFFFFFFFFFFFFFFFFFFFFFFFFFFFFFFFFFFFF AND DUP2 JUMP JUMPDEST DUP1 PUSH1 0x4 PUSH1 0x0 CALLER PUSH20 0xFFFFFFFFFFFFFFFFFFFFFFFFFFFFFFFFFFFFFFFF AND PUSH20 0xFFFFFFFFFFFFFFFFFFFFFFFFFFFFFFFFFFFFFFFF AND DUP2 MSTORE PUSH1 0x20 ADD SWAP1 DUP2 MSTORE PUSH1 0x20 ADD PUSH1 0x0 KECCAK256 SLOAD LT ISZERO PUSH2 0x711 JUMPI PUSH1 0x40 MLOAD PUSH32 0x8C379A000000000000000000000000000000000000000000000000000000000 DUP2 MSTORE PUSH1 0x4 ADD PUSH2 0x708 SWAP1 PUSH2 0x12A0 JUMP JUMPDEST PUSH1 0x40 MLOAD DUP1 SWAP2 SUB SWAP1 REVERT JUMPDEST DUP1 PUSH1 0x4 PUSH1 0x0 CALLER PUSH20 0xFFFFFFFFFFFFFFFFFFFFFFFFFFFFFFFFFFFFFFFF AND PUSH20 0xFFFFFFFFFFFFFFFFFFFFFFFFFFFFFFFFFFFFFFFF AND DUP2 MSTORE PUSH1 0x20 ADD SWAP1 DUP2 MSTORE PUSH1 0x20 ADD PUSH1 0x0 KECCAK256 PUSH1 0x0 DUP3 DUP3 SLOAD PUSH2 0x760 SWAP2 SWAP1 PUSH2 0x12EF JUMP JUMPDEST SWAP3 POP POP DUP2 SWAP1 SSTORE POP DUP1 PUSH1 0x4 PUSH1 0x0 DUP5 PUSH20 0xFFFFFFFFFFFFFFFFFFFFFFFFFFFFFFFFFFFFFFFF AND PUSH20 0xFFFFFFFFFFFFFFFFFFFFFFFFFFFFFFFFFFFFFFFF AND DUP2 MSTORE PUSH1 0x20 ADD SWAP1 DUP2 MSTORE PUSH1 0x20 ADD PUSH1 0x0 KECCAK256 PUSH1 0x0 DUP3 DUP3 SLOAD PUSH2 0x7B6 SWAP2 SWAP1 PUSH2 0x1323 JUMP JUMPDEST SWAP3 POP POP DUP2 SWAP1 SSTORE POP POP POP JUMP JUMPDEST PUSH1 0x0 PUSH1 0x5 PUSH1 0x0 DUP6 PUSH20 0xFFFFFFFFFFFFFFFFFFFFFFFFFFFFFFFFFFFFFFFF AND PUSH20 0xFFFFFFFFFFFFFFFFFFFFFFFFFFFFFFFFFFFFFFFF AND DUP2 MSTORE PUSH1 0x20 ADD SWAP1 DUP2 MSTORE PUSH1 0x20 ADD PUSH1 0x0 KECCAK256 PUSH1 0x0 DUP5 PUSH20 0xFFFFFFFFFFFFFFFFFFFFFFFFFFFFFFFFFFFFFFFF AND PUSH20 0xFFFFFFFFFFFFFFFFFFFFFFFFFFFFFFFFFFFFFFFF AND DUP2 MSTORE PUSH1 0x20 ADD SWAP1 DUP2 MSTORE PUSH1 0x20 ADD PUSH1 0x0 KECCAK256 SLOAD SWAP1 POP DUP2 DUP2 LT ISZERO PUSH2 0x885 JUMPI PUSH1 0x40 MLOAD PUSH32 0x8C379A000000000000000000000000000000000000000000000000000000000 DUP2 MSTORE PUSH1 0x4 ADD PUSH2 0x87C SWAP1 PUSH2 0x13A3 JUMP JUMPDEST PUSH1 0x40 MLOAD DUP1 SWAP2 SUB SWAP1 REVERT JUMPDEST DUP2 PUSH1 0x5 PUSH1 0x0 DUP7 PUSH20 0xFFFFFFFFFFFFFFFFFFFFFFFFFFFFFFFFFFFFFFFF AND PUSH20 0xFFFFFFFFFFFFFFFFFFFFFFFFFFFFFFFFFFFFFFFF AND DUP2 MSTORE PUSH1 0x20 ADD SWAP1 DUP2 MSTORE PUSH1 0x20 ADD PUSH1 0x0 KECCAK256 PUSH1 0x0 DUP6 PUSH20 0xFFFFFFFFFFFFFFFFFFFFFFFFFFFFFFFFFFFFFFFF AND PUSH20 0xFFFFFFFFFFFFFFFFFFFFFFFFFFFFFFFFFFFFFFFF AND DUP2 MSTORE PUSH1 0x20 ADD SWAP1 DUP2 MSTORE PUSH1 0x20 ADD PUSH1 0x0 KECCAK256 PUSH1 0x0 DUP3 DUP3 SLOAD PUSH2 0x911 SWAP2 SWAP1 PUSH2 0x12EF JUMP JUMPDEST SWAP3 POP POP DUP2 SWAP1 SSTORE POP DUP2 PUSH1 0x4 PUSH1 0x0 DUP7 PUSH20 0xFFFFFFFFFFFFFFFFFFFFFFFFFFFFFFFFFFFFFFFF AND PUSH20 0xFFFFFFFFFFFFFFFFFFFFFFFFFFFFFFFFFFFFFFFF AND DUP2 MSTORE PUSH1 0x20 ADD SWAP1 DUP2 MSTORE PUSH1 0x20 ADD PUSH1 0x0 KECCAK256 PUSH1 0x0 DUP3 DUP3 SLOAD PUSH2 0x967 SWAP2 SWAP1 PUSH2 0x12EF JUMP JUMPDEST SWAP3 POP POP DUP2 SWAP1 SSTORE POP DUP2 PUSH1 0x4 PUSH1 0x0 DUP6 PUSH20 0xFFFFFFFFFFFFFFFFFFFFFFFFFFFFFFFFFFFFFFFF AND PUSH20 0xFFFFFFFFFFFFFFFFFFFFFFFFFFFFFFFFFFFFFFFF AND DUP2 MSTORE PUSH1 0x20 ADD SWAP1 DUP2 MSTORE PUSH1 0x20 ADD PUSH1 0x0 KECCAK256 PUSH1 0x0 DUP3 DUP3 SLOAD PUSH2 0x9BD SWAP2 SWAP1 PUSH2 0x1323 JUMP JUMPDEST SWAP3 POP POP DUP2 SWAP1 SSTORE POP POP POP POP POP JUMP JUMPDEST DUP1 PUSH20 0xFFFFFFFFFFFFFFFFFFFFFFFFFFFFFFFFFFFFFFFF AND PUSH4 0x52D1902D PUSH1 0x40 MLOAD DUP2 PUSH4 0xFFFFFFFF AND PUSH1 0xE0 SHL DUP2 MSTORE PUSH1 0x4 ADD PUSH1 0x20 PUSH1 0x40 MLOAD DUP1 DUP4 SUB DUP2 DUP7 GAS STATICCALL ISZERO DUP1 ISZERO PUSH2 0xA15 JUMPI RETURNDATASIZE PUSH1 0x0 DUP1 RETURNDATACOPY RETURNDATASIZE PUSH1 0x0 REVERT JUMPDEST POP POP POP POP PUSH1 0x40 MLOAD RETURNDATASIZE PUSH1 0x1F NOT PUSH1 0x1F DUP3 ADD AND DUP3 ADD DUP1 PUSH1 0x40 MSTORE POP DUP2 ADD SWAP1 PUSH2 0xA39 SWAP2 SWAP1 PUSH2 0x13EF JUMP JUMPDEST PUSH32 0xC5F16F0FCC639FA48A6947836D9850F504798523BF8C9A3A87D5876CF622BCF7 PUSH1 0x0 SHL EQ PUSH2 0xA9D JUMPI PUSH1 0x40 MLOAD PUSH32 0x8C379A000000000000000000000000000000000000000000000000000000000 DUP2 MSTORE PUSH1 0x4 ADD PUSH2 0xA94 SWAP1 PUSH2 0x1468 JUMP JUMPDEST PUSH1 0x40 MLOAD DUP1 SWAP2 SUB SWAP1 REVERT JUMPDEST DUP1 PUSH32 0xC5F16F0FCC639FA48A6947836D9850F504798523BF8C9A3A87D5876CF622BCF7 SSTORE POP JUMP JUMPDEST PUSH1 0x0 SLOAD PUSH1 0x4 PUSH1 0x0 DUP4 PUSH20 0xFFFFFFFFFFFFFFFFFFFFFFFFFFFFFFFFFFFFFFFF AND PUSH20 0xFFFFFFFFFFFFFFFFFFFFFFFFFFFFFFFFFFFFFFFF AND DUP2 MSTORE PUSH1 0x20 ADD SWAP1 DUP2 MSTORE PUSH1 0x20 ADD PUSH1 0x0 KECCAK256 PUSH1 0x0 DUP3 DUP3 SLOAD PUSH2 0xB14 SWAP2 SWAP1 PUSH2 0x1323 JUMP JUMPDEST SWAP3 POP POP DUP2 SWAP1 SSTORE POP POP JUMP JUMPDEST PUSH1 0x0 DUP1 REVERT JUMPDEST PUSH1 0x0 PUSH20 0xFFFFFFFFFFFFFFFFFFFFFFFFFFFFFFFFFFFFFFFF DUP3 AND SWAP1 POP SWAP2 SWAP1 POP JUMP JUMPDEST PUSH1 0x0 PUSH2 0xB4E DUP3 PUSH2 0xB23 JUMP JUMPDEST SWAP1 POP SWAP2 SWAP1 POP JUMP JUMPDEST PUSH2 0xB5E DUP2 PUSH2 0xB43 JUMP JUMPDEST DUP2 EQ PUSH2 0xB69 JUMPI PUSH1 0x0 DUP1 REVERT JUMPDEST POP JUMP JUMPDEST PUSH1 0x0 DUP2 CALLDATALOAD SWAP1 POP PUSH2 0xB7B DUP2 PUSH2 0xB55 JUMP JUMPDEST SWAP3 SWAP2 POP POP JUMP JUMPDEST PUSH1 0x0 DUP2 SWAP1 POP SWAP2 SWAP1 POP JUMP JUMPDEST PUSH2 0xB94 DUP2 PUSH2 0xB81 JUMP JUMPDEST DUP2 EQ PUSH2 0xB9F JUMPI PUSH1 0x0 DUP1 REVERT JUMPDEST POP JUMP JUMPDEST PUSH1 0x0 DUP2 CALLDATALOAD SWAP1 POP PUSH2 0xBB1 DUP2 PUSH2 0xB8B JUMP JUMPDEST SWAP3 SWAP2 POP POP JUMP JUMPDEST PUSH1 0x0 DUP1 PUSH1 0x40 DUP4 DUP6 SUB SLT ISZERO PUSH2 0xBCE JUMPI PUSH2 0xBCD PUSH2 0xB1E JUMP JUMPDEST JUMPDEST PUSH1 0x0 PUSH2 0xBDC DUP6 DUP3 DUP7 ADD PUSH2 0xB6C JUMP JUMPDEST SWAP3 POP POP PUSH1 0x20 PUSH2 0xBED DUP6 DUP3 DUP7 ADD PUSH2 0xBA2 JUMP JUMPDEST SWAP2 POP POP SWAP3 POP SWAP3 SWAP1 POP JUMP JUMPDEST PUSH1 0x0 DUP2 ISZERO ISZERO SWAP1 POP SWAP2 SWAP1 POP JUMP JUMPDEST PUSH2 0xC0C DUP2 PUSH2 0xBF7 JUMP JUMPDEST DUP3 MSTORE POP POP JUMP JUMPDEST PUSH1 0x0 PUSH1 0x20 DUP3 ADD SWAP1 POP PUSH2 0xC27 PUSH1 0x0 DUP4 ADD DUP5 PUSH2 0xC03 JUMP JUMPDEST SWAP3 SWAP2 POP POP JUMP JUMPDEST PUSH1 0x0 PUSH1 0x20 DUP3 DUP5 SUB SLT ISZERO PUSH2 0xC43 JUMPI PUSH2 0xC42 PUSH2 0xB1E JUMP JUMPDEST JUMPDEST PUSH1 0x0 PUSH2 0xC51 DUP5 DUP3 DUP6 ADD PUSH2 0xB6C JUMP JUMPDEST SWAP2 POP POP SWAP3 SWAP2 POP POP JUMP JUMPDEST PUSH2 0xC63 DUP2 PUSH2 0xB81 JUMP JUMPDEST DUP3 MSTORE POP POP JUMP JUMPDEST PUSH1 0x0 PUSH1 0x20 DUP3 ADD SWAP1 POP PUSH2 0xC7E PUSH1 0x0 DUP4 ADD DUP5 PUSH2 0xC5A JUMP JUMPDEST SWAP3 SWAP2 POP POP JUMP JUMPDEST PUSH1 0x0 DUP2 SWAP1 POP SWAP2 SWAP1 POP JUMP JUMPDEST PUSH2 0xC97 DUP2 PUSH2 0xC84 JUMP JUMPDEST DUP3 MSTORE POP POP JUMP JUMPDEST PUSH1 0x0 PUSH1 0x20 DUP3 ADD SWAP1 POP PUSH2 0xCB2 PUSH1 0x0 DUP4 ADD DUP5 PUSH2 0xC8E JUMP JUMPDEST SWAP3 SWAP2 POP POP JUMP JUMPDEST PUSH1 0x0 DUP2 MLOAD SWAP1 POP SWAP2 SWAP1 POP JUMP JUMPDEST PUSH1 0x0 DUP3 DUP3 MSTORE PUSH1 0x20 DUP3 ADD SWAP1 POP SWAP3 SWAP2 POP POP JUMP JUMPDEST PUSH1 0x0 JUMPDEST DUP4 DUP2 LT ISZERO PUSH2 0xCF2 JUMPI DUP1 DUP3 ADD MLOAD DUP2 DUP5 ADD MSTORE PUSH1 0x20 DUP2 ADD SWAP1 POP PUSH2 0xCD7 JUMP JUMPDEST PUSH1 0x0 DUP5 DUP5 ADD MSTORE POP POP POP POP JUMP JUMPDEST PUSH1 0x0 PUSH1 0x1F NOT PUSH1 0x1F DUP4 ADD AND SWAP1 POP SWAP2 SWAP1 POP JUMP JUMPDEST PUSH1 0x0 PUSH2 0xD1A DUP3 PUSH2 0xCB8 JUMP JUMPDEST PUSH2 0xD24 DUP2 DUP6 PUSH2 0xCC3 JUMP JUMPDEST SWAP4 POP PUSH2 0xD34 DUP2 DUP6 PUSH1 0x20 DUP7 ADD PUSH2 0xCD4 JUMP JUMPDEST PUSH2 0xD3D DUP2 PUSH2 0xCFE JUMP JUMPDEST DUP5 ADD SWAP2 POP POP SWAP3 SWAP2 POP POP JUMP JUMPDEST PUSH1 0x0 PUSH1 0x20 DUP3 ADD SWAP1 POP DUP2 DUP2 SUB PUSH1 0x0 DUP4 ADD MSTORE PUSH2 0xD62 DUP2 DUP5 PUSH2 0xD0F JUMP JUMPDEST SWAP1 POP SWAP3 SWAP2 POP POP JUMP JUMPDEST PUSH2 0xD73 DUP2 PUSH2 0xB43 JUMP JUMPDEST DUP3 MSTORE POP POP JUMP JUMPDEST PUSH1 0x0 PUSH1 0x20 DUP3 ADD SWAP1 POP PUSH2 0xD8E PUSH1 0x0 DUP4 ADD DUP5 PUSH2 0xD6A JUMP JUMPDEST SWAP3 SWAP2 POP POP JUMP JUMPDEST PUSH1 0x0 DUP1 PUSH1 0x0 PUSH1 0x60 DUP5 DUP7 SUB SLT ISZERO PUSH2 0xDAD JUMPI PUSH2 0xDAC PUSH2 0xB1E JUMP JUMPDEST JUMPDEST PUSH1 0x0 PUSH2 0xDBB DUP7 DUP3 DUP8 ADD PUSH2 0xB6C JUMP JUMPDEST SWAP4 POP POP PUSH1 0x20 PUSH2 0xDCC DUP7 DUP3 DUP8 ADD PUSH2 0xB6C JUMP JUMPDEST SWAP3 POP POP PUSH1 0x40 PUSH2 0xDDD DUP7 DUP3 DUP8 ADD PUSH2 0xBA2 JUMP JUMPDEST SWAP2 POP POP SWAP3 POP SWAP3 POP SWAP3 JUMP JUMPDEST PUSH1 0x0 DUP3 DUP3 MSTORE PUSH1 0x20 DUP3 ADD SWAP1 POP SWAP3 SWAP2 POP POP JUMP JUMPDEST PUSH32 0x556E61626C6520746F20617070726F7665000000000000000000000000000000 PUSH1 0x0 DUP3 ADD MSTORE POP JUMP JUMPDEST PUSH1 0x0 PUSH2 0xE2E PUSH1 0x11 DUP4 PUSH2 0xDE7 JUMP JUMPDEST SWAP2 POP PUSH2 0xE39 DUP3 PUSH2 0xDF8 JUMP JUMPDEST PUSH1 0x20 DUP3 ADD SWAP1 POP SWAP2 SWAP1 POP JUMP JUMPDEST PUSH1 0x0 PUSH1 0x20 DUP3 ADD SWAP1 POP DUP2 DUP2 SUB PUSH1 0x0 DUP4 ADD MSTORE PUSH2 0xE5D DUP2 PUSH2 0xE21 JUMP JUMPDEST SWAP1 POP SWAP2 SWAP1 POP JUMP JUMPDEST PUSH32 0x596F7520617265206E6F7420616C6C6F77656420746F20757067726164650000 PUSH1 0x0 DUP3 ADD MSTORE POP JUMP JUMPDEST PUSH1 0x0 PUSH2 0xE9A PUSH1 0x1E DUP4 PUSH2 0xDE7 JUMP JUMPDEST SWAP2 POP PUSH2 0xEA5 DUP3 PUSH2 0xE64 JUMP JUMPDEST PUSH1 0x20 DUP3 ADD SWAP1 POP SWAP2 SWAP1 POP JUMP JUMPDEST PUSH1 0x0 PUSH1 0x20 DUP3 ADD SWAP1 POP DUP2 DUP2 SUB PUSH1 0x0 DUP4 ADD MSTORE PUSH2 0xEC9 DUP2 PUSH2 0xE8D JUMP JUMPDEST SWAP1 POP SWAP2 SWAP1 POP JUMP JUMPDEST PUSH32 0x436F6E747261637420616C726561647920496E697469616C697A656400000000 PUSH1 0x0 DUP3 ADD MSTORE POP JUMP JUMPDEST PUSH1 0x0 PUSH2 0xF06 PUSH1 0x1C DUP4 PUSH2 0xDE7 JUMP JUMPDEST SWAP2 POP PUSH2 0xF11 DUP3 PUSH2 0xED0 JUMP JUMPDEST PUSH1 0x20 DUP3 ADD SWAP1 POP SWAP2 SWAP1 POP JUMP JUMPDEST PUSH1 0x0 PUSH1 0x20 DUP3 ADD SWAP1 POP DUP2 DUP2 SUB PUSH1 0x0 DUP4 ADD MSTORE PUSH2 0xF35 DUP2 PUSH2 0xEF9 JUMP JUMPDEST SWAP1 POP SWAP2 SWAP1 POP JUMP JUMPDEST PUSH1 0x0 DUP2 MLOAD SWAP1 POP SWAP2 SWAP1 POP JUMP JUMPDEST PUSH32 0x4E487B7100000000000000000000000000000000000000000000000000000000 PUSH1 0x0 MSTORE PUSH1 0x41 PUSH1 0x4 MSTORE PUSH1 0x24 PUSH1 0x0 REVERT JUMPDEST PUSH32 0x4E487B7100000000000000000000000000000000000000000000000000000000 PUSH1 0x0 MSTORE PUSH1 0x22 PUSH1 0x4 MSTORE PUSH1 0x24 PUSH1 0x0 REVERT JUMPDEST PUSH1 0x0 PUSH1 0x2 DUP3 DIV SWAP1 POP PUSH1 0x1 DUP3 AND DUP1 PUSH2 0xFBD JUMPI PUSH1 0x7F DUP3 AND SWAP2 POP JUMPDEST PUSH1 0x20 DUP3 LT DUP2 SUB PUSH2 0xFD0 JUMPI PUSH2 0xFCF PUSH2 0xF76 JUMP JUMPDEST JUMPDEST POP SWAP2 SWAP1 POP JUMP JUMPDEST PUSH1 0x0 DUP2 SWAP1 POP DUP2 PUSH1 0x0 MSTORE PUSH1 0x20 PUSH1 0x0 KECCAK256 SWAP1 POP SWAP2 SWAP1 POP JUMP JUMPDEST PUSH1 0x0 PUSH1 0x20 PUSH1 0x1F DUP4 ADD DIV SWAP1 POP SWAP2 SWAP1 POP JUMP JUMPDEST PUSH1 0x0 DUP3 DUP3 SHL SWAP1 POP SWAP3 SWAP2 POP POP JUMP JUMPDEST PUSH1 0x0 PUSH1 0x8 DUP4 MUL PUSH2 0x1038 PUSH32 0xFFFFFFFFFFFFFFFFFFFFFFFFFFFFFFFFFFFFFFFFFFFFFFFFFFFFFFFFFFFFFFFF DUP3 PUSH2 0xFFB JUMP JUMPDEST PUSH2 0x1042 DUP7 DUP4 PUSH2 0xFFB JUMP JUMPDEST SWAP6 POP DUP1 NOT DUP5 AND SWAP4 POP DUP1 DUP7 AND DUP5 OR SWAP3 POP POP POP SWAP4 SWAP3 POP POP POP JUMP JUMPDEST PUSH1 0x0 DUP2 SWAP1 POP SWAP2 SWAP1 POP JUMP JUMPDEST PUSH1 0x0 PUSH2 0x107F PUSH2 0x107A PUSH2 0x1075 DUP5 PUSH2 0xB81 JUMP JUMPDEST PUSH2 0x105A JUMP JUMPDEST PUSH2 0xB81 JUMP JUMPDEST SWAP1 POP SWAP2 SWAP1 POP JUMP JUMPDEST PUSH1 0x0 DUP2 SWAP1 POP SWAP2 SWAP1 POP JUMP JUMPDEST PUSH2 0x1099 DUP4 PUSH2 0x1064 JUMP JUMPDEST PUSH2 0x10AD PUSH2 0x10A5 DUP3 PUSH2 0x1086 JUMP JUMPDEST DUP5 DUP5 SLOAD PUSH2 0x1008 JUMP JUMPDEST DUP3 SSTORE POP POP POP POP JUMP JUMPDEST PUSH1 0x0 SWAP1 JUMP JUMPDEST PUSH2 0x10C2 PUSH2 0x10B5 JUMP JUMPDEST PUSH2 0x10CD DUP2 DUP5 DUP5 PUSH2 0x1090 JUMP JUMPDEST POP POP POP JUMP JUMPDEST JUMPDEST DUP2 DUP2 LT ISZERO PUSH2 0x10F1 JUMPI PUSH2 0x10E6 PUSH1 0x0 DUP3 PUSH2 0x10BA JUMP JUMPDEST PUSH1 0x1 DUP2 ADD SWAP1 POP PUSH2 0x10D3 JUMP JUMPDEST POP POP JUMP JUMPDEST PUSH1 0x1F DUP3 GT ISZERO PUSH2 0x1136 JUMPI PUSH2 0x1107 DUP2 PUSH2 0xFD6 JUMP JUMPDEST PUSH2 0x1110 DUP5 PUSH2 0xFEB JUMP JUMPDEST DUP2 ADD PUSH1 0x20 DUP6 LT ISZERO PUSH2 0x111F JUMPI DUP2 SWAP1 POP JUMPDEST PUSH2 0x1133 PUSH2 0x112B DUP6 PUSH2 0xFEB JUMP JUMPDEST DUP4 ADD DUP3 PUSH2 0x10D2 JUMP JUMPDEST POP POP JUMPDEST POP POP POP JUMP JUMPDEST PUSH1 0x0 DUP3 DUP3 SHR SWAP1 POP SWAP3 SWAP2 POP POP JUMP JUMPDEST PUSH1 0x0 PUSH2 0x1159 PUSH1 0x0 NOT DUP5 PUSH1 0x8 MUL PUSH2 0x113B JUMP JUMPDEST NOT DUP1 DUP4 AND SWAP2 POP POP SWAP3 SWAP2 POP POP JUMP JUMPDEST PUSH1 0x0 PUSH2 0x1172 DUP4 DUP4 PUSH2 0x1148 JUMP JUMPDEST SWAP2 POP DUP3 PUSH1 0x2 MUL DUP3 OR SWAP1 POP SWAP3 SWAP2 POP POP JUMP JUMPDEST PUSH2 0x118B DUP3 PUSH2 0xF3C JUMP JUMPDEST PUSH8 0xFFFFFFFFFFFFFFFF DUP2 GT ISZERO PUSH2 0x11A4 JUMPI PUSH2 0x11A3 PUSH2 0xF47 JUMP JUMPDEST JUMPDEST PUSH2 0x11AE DUP3 SLOAD PUSH2 0xFA5 JUMP JUMPDEST PUSH2 0x11B9 DUP3 DUP3 DUP6 PUSH2 0x10F5 JUMP JUMPDEST PUSH1 0x0 PUSH1 0x20 SWAP1 POP PUSH1 0x1F DUP4 GT PUSH1 0x1 DUP2 EQ PUSH2 0x11EC JUMPI PUSH1 0x0 DUP5 ISZERO PUSH2 0x11DA JUMPI DUP3 DUP8 ADD MLOAD SWAP1 POP JUMPDEST PUSH2 0x11E4 DUP6 DUP3 PUSH2 0x1166 JUMP JUMPDEST DUP7 SSTORE POP PUSH2 0x124C JUMP JUMPDEST PUSH1 0x1F NOT DUP5 AND PUSH2 0x11FA DUP7 PUSH2 0xFD6 JUMP JUMPDEST PUSH1 0x0 JUMPDEST DUP3 DUP2 LT ISZERO PUSH2 0x1222 JUMPI DUP5 DUP10 ADD MLOAD DUP3 SSTORE PUSH1 0x1 DUP3 ADD SWAP2 POP PUSH1 0x20 DUP6 ADD SWAP5 POP PUSH1 0x20 DUP2 ADD SWAP1 POP PUSH2 0x11FD JUMP JUMPDEST DUP7 DUP4 LT ISZERO PUSH2 0x123F JUMPI DUP5 DUP10 ADD MLOAD PUSH2 0x123B PUSH1 0x1F DUP10 AND DUP3 PUSH2 0x1148 JUMP JUMPDEST DUP4 SSTORE POP JUMPDEST PUSH1 0x1 PUSH1 0x2 DUP9 MUL ADD DUP9 SSTORE POP POP POP JUMPDEST POP POP POP POP POP POP JUMP JUMPDEST PUSH32 0x496E73756666696369656E742046756E64000000000000000000000000000000 PUSH1 0x0 DUP3 ADD MSTORE POP JUMP JUMPDEST PUSH1 0x0 PUSH2 0x128A PUSH1 0x11 DUP4 PUSH2 0xDE7 JUMP JUMPDEST SWAP2 POP PUSH2 0x1295 DUP3 PUSH2 0x1254 JUMP JUMPDEST PUSH1 0x20 DUP3 ADD SWAP1 POP SWAP2 SWAP1 POP JUMP JUMPDEST PUSH1 0x0 PUSH1 0x20 DUP3 ADD SWAP1 POP DUP2 DUP2 SUB PUSH1 0x0 DUP4 ADD MSTORE PUSH2 0x12B9 DUP2 PUSH2 0x127D JUMP JUMPDEST SWAP1 POP SWAP2 SWAP1 POP JUMP JUMPDEST PUSH32 0x4E487B7100000000000000000000000000000000000000000000000000000000 PUSH1 0x0 MSTORE PUSH1 0x11 PUSH1 0x4 MSTORE PUSH1 0x24 PUSH1 0x0 REVERT JUMPDEST PUSH1 0x0 PUSH2 0x12FA DUP3 PUSH2 0xB81 JUMP JUMPDEST SWAP2 POP PUSH2 0x1305 DUP4 PUSH2 0xB81 JUMP JUMPDEST SWAP3 POP DUP3 DUP3 SUB SWAP1 POP DUP2 DUP2 GT ISZERO PUSH2 0x131D JUMPI PUSH2 0x131C PUSH2 0x12C0 JUMP JUMPDEST JUMPDEST SWAP3 SWAP2 POP POP JUMP JUMPDEST PUSH1 0x0 PUSH2 0x132E DUP3 PUSH2 0xB81 JUMP JUMPDEST SWAP2 POP PUSH2 0x1339 DUP4 PUSH2 0xB81 JUMP JUMPDEST SWAP3 POP DUP3 DUP3 ADD SWAP1 POP DUP1 DUP3 GT ISZERO PUSH2 0x1351 JUMPI PUSH2 0x1350 PUSH2 0x12C0 JUMP JUMPDEST JUMPDEST SWAP3 SWAP2 POP POP JUMP JUMPDEST PUSH32 0x416D6F756E7420756E617070726F766564000000000000000000000000000000 PUSH1 0x0 DUP3 ADD MSTORE POP JUMP JUMPDEST PUSH1 0x0 PUSH2 0x138D PUSH1 0x11 DUP4 PUSH2 0xDE7 JUMP JUMPDEST SWAP2 POP PUSH2 0x1398 DUP3 PUSH2 0x1357 JUMP JUMPDEST PUSH1 0x20 DUP3 ADD SWAP1 POP SWAP2 SWAP1 POP JUMP JUMPDEST PUSH1 0x0 PUSH1 0x20 DUP3 ADD SWAP1 POP DUP2 DUP2 SUB PUSH1 0x0 DUP4 ADD MSTORE PUSH2 0x13BC DUP2 PUSH2 0x1380 JUMP JUMPDEST SWAP1 POP SWAP2 SWAP1 POP JUMP JUMPDEST PUSH2 0x13CC DUP2 PUSH2 0xC84 JUMP JUMPDEST DUP2 EQ PUSH2 0x13D7 JUMPI PUSH1 0x0 DUP1 REVERT JUMPDEST POP JUMP JUMPDEST PUSH1 0x0 DUP2 MLOAD SWAP1 POP PUSH2 0x13E9 DUP2 PUSH2 0x13C3 JUMP JUMPDEST SWAP3 SWAP2 POP POP JUMP JUMPDEST PUSH1 0x0 PUSH1 0x20 DUP3 DUP5 SUB SLT ISZERO PUSH2 0x1405 JUMPI PUSH2 0x1404 PUSH2 0xB1E JUMP JUMPDEST JUMPDEST PUSH1 0x0 PUSH2 0x1413 DUP5 DUP3 DUP6 ADD PUSH2 0x13DA JUMP JUMPDEST SWAP2 POP POP SWAP3 SWAP2 POP POP JUMP JUMPDEST PUSH32 0x4E6F7420636F6D70617469626C65000000000000000000000000000000000000 PUSH1 0x0 DUP3 ADD MSTORE POP JUMP JUMPDEST PUSH1 0x0 PUSH2 0x1452 PUSH1 0xE DUP4 PUSH2 0xDE7 JUMP JUMPDEST SWAP2 POP PUSH2 0x145D DUP3 PUSH2 0x141C JUMP JUMPDEST PUSH1 0x20 DUP3 ADD SWAP1 POP SWAP2 SWAP1 POP JUMP JUMPDEST PUSH1 0x0 PUSH1 0x20 DUP3 ADD SWAP1 POP DUP2 DUP2 SUB PUSH1 0x0 DUP4 ADD MSTORE PUSH2 0x1481 DUP2 PUSH2 0x1445 JUMP JUMPDEST SWAP1 POP SWAP2 SWAP1 POP JUMP INVALID LOG2 PUSH5 0x6970667358 0x22 SLT KECCAK256 SWAP5 PUSH17 0xF5D3F90CC30E3DE5645FCDA46F4DDC927C 0x4B 0xE1 EQ CALLER 0xAD CODECOPY 0xAC 0xE5 BLOCKHASH 0xBB CALLDATALOAD 0xC5 SWAP12 PUSH5 0x736F6C6343 STOP ADDMOD LT STOP CALLER "
				},
				"gasEstimates": {
					"creation": {
						"codeDepositCost": "1062000",
						"executionCost": "1100",
						"totalCost": "1063100"
					},
					"external": {
						"ConstructData()": "infinite",
						"TransferFrom(address,address,uint256)": "infinite",
						"allowance(address)": "2975",
						"approve(address,uint256)": "25180",
						"balanceOf(address)": "2863",
						"initialize()": "infinite",
						"initialized()": "2494",
						"owner()": "2630",
						"proxiableUUID()": "410",
						"transfer(address,uint256)": "infinite",
						"upgradeable(address)": "infinite"
					},
					"internal": {
						"mint(address)": "infinite"
					}
				},
				"methodIdentifiers": {
					"ConstructData()": "5a95ff19",
					"TransferFrom(address,address,uint256)": "c0d84ce5",
					"allowance(address)": "3e5beab9",
					"approve(address,uint256)": "095ea7b3",
					"balanceOf(address)": "70a08231",
					"initialize()": "8129fc1c",
					"initialized()": "158ef93e",
					"owner()": "8da5cb5b",
					"proxiableUUID()": "52d1902d",
					"transfer(address,uint256)": "a9059cbb",
					"upgradeable(address)": "62b583a2"
				}
			},
			"storageLayout": {
				"storage": [
					{
						"astId": 36,
						"contract": "adeFunke_flat.sol:Funke",
						"label": "TotalSupply",
						"offset": 0,
						"slot": "0",
						"type": "t_uint256"
					},
					{
						"astId": 38,
						"contract": "adeFunke_flat.sol:Funke",
						"label": "Name",
						"offset": 0,
						"slot": "1",
						"type": "t_string_storage"
					},
					{
						"astId": 40,
						"contract": "adeFunke_flat.sol:Funke",
						"label": "Symbol",
						"offset": 0,
						"slot": "2",
						"type": "t_string_storage"
					},
					{
						"astId": 42,
						"contract": "adeFunke_flat.sol:Funke",
						"label": "initialized",
						"offset": 0,
						"slot": "3",
						"type": "t_bool"
					},
					{
						"astId": 44,
						"contract": "adeFunke_flat.sol:Funke",
						"label": "owner",
						"offset": 1,
						"slot": "3",
						"type": "t_address"
					},
					{
						"astId": 48,
						"contract": "adeFunke_flat.sol:Funke",
						"label": "balance",
						"offset": 0,
						"slot": "4",
						"type": "t_mapping(t_address,t_uint256)"
					},
					{
						"astId": 54,
						"contract": "adeFunke_flat.sol:Funke",
						"label": "Approve",
						"offset": 0,
						"slot": "5",
						"type": "t_mapping(t_address,t_mapping(t_address,t_uint256))"
					}
				],
				"types": {
					"t_address": {
						"encoding": "inplace",
						"label": "address",
						"numberOfBytes": "20"
					},
					"t_bool": {
						"encoding": "inplace",
						"label": "bool",
						"numberOfBytes": "1"
					},
					"t_mapping(t_address,t_mapping(t_address,t_uint256))": {
						"encoding": "mapping",
						"key": "t_address",
						"label": "mapping(address => mapping(address => uint256))",
						"numberOfBytes": "32",
						"value": "t_mapping(t_address,t_uint256)"
					},
					"t_mapping(t_address,t_uint256)": {
						"encoding": "mapping",
						"key": "t_address",
						"label": "mapping(address => uint256)",
						"numberOfBytes": "32",
						"value": "t_uint256"
					},
					"t_string_storage": {
						"encoding": "bytes",
						"label": "string",
						"numberOfBytes": "32"
					},
					"t_uint256": {
						"encoding": "inplace",
						"label": "uint256",
						"numberOfBytes": "32"
					}
				}
			},
			"userdoc": {
				"kind": "user",
				"methods": {},
				"version": 1
			}
		}
	}
}